{
	"contracts/GregorLandToken.sol": {
		"GregorLandToken": {
			"abi": [
				{
					"inputs": [
						{
							"internalType": "string",
							"name": "_name",
							"type": "string"
						},
						{
							"internalType": "string",
							"name": "_symbol",
							"type": "string"
						},
						{
							"internalType": "uint8",
							"name": "_decimals",
							"type": "uint8"
						},
						{
							"internalType": "uint256",
							"name": "_totalSupply",
							"type": "uint256"
						}
					],
					"stateMutability": "nonpayable",
					"type": "constructor"
				},
				{
					"anonymous": false,
					"inputs": [
						{
							"indexed": true,
							"internalType": "address",
							"name": "owner",
							"type": "address"
						},
						{
							"indexed": true,
							"internalType": "address",
							"name": "spender",
							"type": "address"
						},
						{
							"indexed": false,
							"internalType": "uint256",
							"name": "value",
							"type": "uint256"
						}
					],
					"name": "Approval",
					"type": "event"
				},
				{
					"anonymous": false,
					"inputs": [
						{
							"indexed": true,
							"internalType": "address",
							"name": "from",
							"type": "address"
						},
						{
							"indexed": true,
							"internalType": "address",
							"name": "to",
							"type": "address"
						},
						{
							"indexed": false,
							"internalType": "uint256",
							"name": "value",
							"type": "uint256"
						}
					],
					"name": "Transfer",
					"type": "event"
				},
				{
					"inputs": [
						{
							"internalType": "address",
							"name": "owner",
							"type": "address"
						},
						{
							"internalType": "address",
							"name": "delegate",
							"type": "address"
						}
					],
					"name": "allowance",
					"outputs": [
						{
							"internalType": "uint256",
							"name": "",
							"type": "uint256"
						}
					],
					"stateMutability": "view",
					"type": "function"
				},
				{
					"inputs": [
						{
							"internalType": "address",
							"name": "delegate",
							"type": "address"
						},
						{
							"internalType": "uint256",
							"name": "numTokens",
							"type": "uint256"
						}
					],
					"name": "approve",
					"outputs": [
						{
							"internalType": "bool",
							"name": "",
							"type": "bool"
						}
					],
					"stateMutability": "nonpayable",
					"type": "function"
				},
				{
					"inputs": [
						{
							"internalType": "address",
							"name": "tokenOwner",
							"type": "address"
						}
					],
					"name": "balanceOf",
					"outputs": [
						{
							"internalType": "uint256",
							"name": "",
							"type": "uint256"
						}
					],
					"stateMutability": "view",
					"type": "function"
				},
				{
					"inputs": [],
					"name": "decimals",
					"outputs": [
						{
							"internalType": "uint8",
							"name": "",
							"type": "uint8"
						}
					],
					"stateMutability": "view",
					"type": "function"
				},
				{
					"inputs": [],
					"name": "name",
					"outputs": [
						{
							"internalType": "string",
							"name": "",
							"type": "string"
						}
					],
					"stateMutability": "view",
					"type": "function"
				},
				{
					"inputs": [],
					"name": "symbol",
					"outputs": [
						{
							"internalType": "string",
							"name": "",
							"type": "string"
						}
					],
					"stateMutability": "view",
					"type": "function"
				},
				{
					"inputs": [],
					"name": "totalSupply",
					"outputs": [
						{
							"internalType": "uint256",
							"name": "",
							"type": "uint256"
						}
					],
					"stateMutability": "view",
					"type": "function"
				},
				{
					"inputs": [],
					"name": "totalSupply_",
					"outputs": [
						{
							"internalType": "uint256",
							"name": "",
							"type": "uint256"
						}
					],
					"stateMutability": "view",
					"type": "function"
				},
				{
					"inputs": [
						{
							"internalType": "address",
							"name": "receiver",
							"type": "address"
						},
						{
							"internalType": "uint256",
							"name": "numTokens",
							"type": "uint256"
						}
					],
					"name": "transfer",
					"outputs": [
						{
							"internalType": "bool",
							"name": "",
							"type": "bool"
						}
					],
					"stateMutability": "nonpayable",
					"type": "function"
				},
				{
					"inputs": [
						{
							"internalType": "address",
							"name": "owner",
							"type": "address"
						},
						{
							"internalType": "address",
							"name": "buyer",
							"type": "address"
						},
						{
							"internalType": "uint256",
							"name": "numTokens",
							"type": "uint256"
						}
					],
					"name": "transferFrom",
					"outputs": [
						{
							"internalType": "bool",
							"name": "",
							"type": "bool"
						}
					],
					"stateMutability": "nonpayable",
					"type": "function"
				}
			],
			"devdoc": {
				"kind": "dev",
				"methods": {},
				"version": 1
			},
			"evm": {
				"assembly": "    /* \"contracts/GregorLandToken.sol\":87:2157  contract GregorLandToken is IERC20 {... */\n  mstore(0x40, 0x80)\n    /* \"contracts/GregorLandToken.sol\":398:671  constructor(string memory _name, string memory _symbol, uint8 _decimals, uint256 _totalSupply)  {... */\n  callvalue\n  dup1\n  iszero\n  tag_1\n  jumpi\n  0x00\n  dup1\n  revert\ntag_1:\n  pop\n  mload(0x40)\n  sub(codesize, bytecodeSize)\n  dup1\n  bytecodeSize\n  dup4\n  codecopy\n  dup2\n  dup2\n  add\n  0x40\n  mstore\n  dup2\n  add\n  swap1\n  tag_2\n  swap2\n  swap1\n  tag_3\n  jump\t// in\ntag_2:\n    /* \"contracts/GregorLandToken.sol\":512:517  _name */\n  dup4\n    /* \"contracts/GregorLandToken.sol\":505:509  name */\n  0x00\n    /* \"contracts/GregorLandToken.sol\":505:517  name = _name */\n  swap1\n  dup1\n  mload\n  swap1\n  0x20\n  add\n  swap1\n  tag_6\n  swap3\n  swap2\n  swap1\n  tag_7\n  jump\t// in\ntag_6:\n  pop\n    /* \"contracts/GregorLandToken.sol\":537:544  _symbol */\n  dup3\n    /* \"contracts/GregorLandToken.sol\":528:534  symbol */\n  0x01\n    /* \"contracts/GregorLandToken.sol\":528:544  symbol = _symbol */\n  swap1\n  dup1\n  mload\n  swap1\n  0x20\n  add\n  swap1\n  tag_8\n  swap3\n  swap2\n  swap1\n  tag_7\n  jump\t// in\ntag_8:\n  pop\n    /* \"contracts/GregorLandToken.sol\":566:575  _decimals */\n  dup2\n    /* \"contracts/GregorLandToken.sol\":555:563  decimals */\n  0x02\n  0x00\n    /* \"contracts/GregorLandToken.sol\":555:575  decimals = _decimals */\n  0x0100\n  exp\n  dup2\n  sload\n  dup2\n  0xff\n  mul\n  not\n  and\n  swap1\n  dup4\n  0xff\n  and\n  mul\n  or\n  swap1\n  sstore\n  pop\n    /* \"contracts/GregorLandToken.sol\":601:613  _totalSupply */\n  dup1\n    /* \"contracts/GregorLandToken.sol\":586:598  totalSupply_ */\n  0x03\n    /* \"contracts/GregorLandToken.sol\":586:613  totalSupply_ = _totalSupply */\n  dup2\n  swap1\n  sstore\n  pop\n    /* \"contracts/GregorLandToken.sol\":651:663  totalSupply_ */\n  sload(0x03)\n    /* \"contracts/GregorLandToken.sol\":628:636  balances */\n  0x04\n    /* \"contracts/GregorLandToken.sol\":628:648  balances[msg.sender] */\n  0x00\n    /* \"contracts/GregorLandToken.sol\":637:647  msg.sender */\n  caller\n    /* \"contracts/GregorLandToken.sol\":628:648  balances[msg.sender] */\n  0xffffffffffffffffffffffffffffffffffffffff\n  and\n  0xffffffffffffffffffffffffffffffffffffffff\n  and\n  dup2\n  mstore\n  0x20\n  add\n  swap1\n  dup2\n  mstore\n  0x20\n  add\n  0x00\n  keccak256\n    /* \"contracts/GregorLandToken.sol\":628:663  balances[msg.sender] = totalSupply_ */\n  dup2\n  swap1\n  sstore\n  pop\n    /* \"contracts/GregorLandToken.sol\":398:671  constructor(string memory _name, string memory _symbol, uint8 _decimals, uint256 _totalSupply)  {... */\n  pop\n  pop\n  pop\n  pop\n    /* \"contracts/GregorLandToken.sol\":87:2157  contract GregorLandToken is IERC20 {... */\n  jump(tag_9)\ntag_7:\n  dup3\n  dup1\n  sload\n  tag_10\n  swap1\n  tag_11\n  jump\t// in\ntag_10:\n  swap1\n  0x00\n  mstore\n  keccak256(0x00, 0x20)\n  swap1\n  0x1f\n  add\n  0x20\n  swap1\n  div\n  dup2\n  add\n  swap3\n  dup3\n  tag_13\n  jumpi\n  0x00\n  dup6\n  sstore\n  jump(tag_12)\ntag_13:\n  dup3\n  0x1f\n  lt\n  tag_14\n  jumpi\n  dup1\n  mload\n  not(0xff)\n  and\n  dup4\n  dup1\n  add\n  or\n  dup6\n  sstore\n  jump(tag_12)\ntag_14:\n  dup3\n  dup1\n  add\n  0x01\n  add\n  dup6\n  sstore\n  dup3\n  iszero\n  tag_12\n  jumpi\n  swap2\n  dup3\n  add\ntag_15:\n  dup3\n  dup2\n  gt\n  iszero\n  tag_16\n  jumpi\n  dup3\n  mload\n  dup3\n  sstore\n  swap2\n  0x20\n  add\n  swap2\n  swap1\n  0x01\n  add\n  swap1\n  jump(tag_15)\ntag_16:\ntag_12:\n  pop\n  swap1\n  pop\n  tag_17\n  swap2\n  swap1\n  tag_18\n  jump\t// in\ntag_17:\n  pop\n  swap1\n  jump\t// out\ntag_18:\ntag_19:\n  dup1\n  dup3\n  gt\n  iszero\n  tag_20\n  jumpi\n  0x00\n  dup2\n  0x00\n  swap1\n  sstore\n  pop\n  0x01\n  add\n  jump(tag_19)\ntag_20:\n  pop\n  swap1\n  jump\t// out\n    /* \"#utility.yul\":7:82   */\ntag_21:\n    /* \"#utility.yul\":40:46   */\n  0x00\n    /* \"#utility.yul\":73:75   */\n  0x40\n    /* \"#utility.yul\":67:76   */\n  mload\n    /* \"#utility.yul\":57:76   */\n  swap1\n  pop\n    /* \"#utility.yul\":7:82   */\n  swap1\n  jump\t// out\n    /* \"#utility.yul\":88:205   */\ntag_22:\n    /* \"#utility.yul\":197:198   */\n  0x00\n    /* \"#utility.yul\":194:195   */\n  dup1\n    /* \"#utility.yul\":187:199   */\n  revert\n    /* \"#utility.yul\":211:328   */\ntag_23:\n    /* \"#utility.yul\":320:321   */\n  0x00\n    /* \"#utility.yul\":317:318   */\n  dup1\n    /* \"#utility.yul\":310:322   */\n  revert\n    /* \"#utility.yul\":334:451   */\ntag_24:\n    /* \"#utility.yul\":443:444   */\n  0x00\n    /* \"#utility.yul\":440:441   */\n  dup1\n    /* \"#utility.yul\":433:445   */\n  revert\n    /* \"#utility.yul\":457:574   */\ntag_25:\n    /* \"#utility.yul\":566:567   */\n  0x00\n    /* \"#utility.yul\":563:564   */\n  dup1\n    /* \"#utility.yul\":556:568   */\n  revert\n    /* \"#utility.yul\":580:682   */\ntag_26:\n    /* \"#utility.yul\":621:627   */\n  0x00\n    /* \"#utility.yul\":672:674   */\n  0x1f\n    /* \"#utility.yul\":668:675   */\n  not\n    /* \"#utility.yul\":663:665   */\n  0x1f\n    /* \"#utility.yul\":656:661   */\n  dup4\n    /* \"#utility.yul\":652:666   */\n  add\n    /* \"#utility.yul\":648:676   */\n  and\n    /* \"#utility.yul\":638:676   */\n  swap1\n  pop\n    /* \"#utility.yul\":580:682   */\n  swap2\n  swap1\n  pop\n  jump\t// out\n    /* \"#utility.yul\":688:868   */\ntag_27:\n    /* \"#utility.yul\":736:813   */\n  0x4e487b7100000000000000000000000000000000000000000000000000000000\n    /* \"#utility.yul\":733:734   */\n  0x00\n    /* \"#utility.yul\":726:814   */\n  mstore\n    /* \"#utility.yul\":833:837   */\n  0x41\n    /* \"#utility.yul\":830:831   */\n  0x04\n    /* \"#utility.yul\":823:838   */\n  mstore\n    /* \"#utility.yul\":857:861   */\n  0x24\n    /* \"#utility.yul\":854:855   */\n  0x00\n    /* \"#utility.yul\":847:862   */\n  revert\n    /* \"#utility.yul\":874:1155   */\ntag_28:\n    /* \"#utility.yul\":957:984   */\n  tag_50\n    /* \"#utility.yul\":979:983   */\n  dup3\n    /* \"#utility.yul\":957:984   */\n  tag_26\n  jump\t// in\ntag_50:\n    /* \"#utility.yul\":949:955   */\n  dup2\n    /* \"#utility.yul\":945:985   */\n  add\n    /* \"#utility.yul\":1087:1093   */\n  dup2\n    /* \"#utility.yul\":1075:1085   */\n  dup2\n    /* \"#utility.yul\":1072:1094   */\n  lt\n    /* \"#utility.yul\":1051:1069   */\n  0xffffffffffffffff\n    /* \"#utility.yul\":1039:1049   */\n  dup3\n    /* \"#utility.yul\":1036:1070   */\n  gt\n    /* \"#utility.yul\":1033:1095   */\n  or\n    /* \"#utility.yul\":1030:1118   */\n  iszero\n  tag_51\n  jumpi\n    /* \"#utility.yul\":1098:1116   */\n  tag_52\n  tag_27\n  jump\t// in\ntag_52:\n    /* \"#utility.yul\":1030:1118   */\ntag_51:\n    /* \"#utility.yul\":1138:1148   */\n  dup1\n    /* \"#utility.yul\":1134:1136   */\n  0x40\n    /* \"#utility.yul\":1127:1149   */\n  mstore\n    /* \"#utility.yul\":917:1155   */\n  pop\n    /* \"#utility.yul\":874:1155   */\n  pop\n  pop\n  jump\t// out\n    /* \"#utility.yul\":1161:1290   */\ntag_29:\n    /* \"#utility.yul\":1195:1201   */\n  0x00\n    /* \"#utility.yul\":1222:1242   */\n  tag_54\n  tag_21\n  jump\t// in\ntag_54:\n    /* \"#utility.yul\":1212:1242   */\n  swap1\n  pop\n    /* \"#utility.yul\":1251:1284   */\n  tag_55\n    /* \"#utility.yul\":1279:1283   */\n  dup3\n    /* \"#utility.yul\":1271:1277   */\n  dup3\n    /* \"#utility.yul\":1251:1284   */\n  tag_28\n  jump\t// in\ntag_55:\n    /* \"#utility.yul\":1161:1290   */\n  swap2\n  swap1\n  pop\n  jump\t// out\n    /* \"#utility.yul\":1296:1604   */\ntag_30:\n    /* \"#utility.yul\":1358:1362   */\n  0x00\n    /* \"#utility.yul\":1448:1466   */\n  0xffffffffffffffff\n    /* \"#utility.yul\":1440:1446   */\n  dup3\n    /* \"#utility.yul\":1437:1467   */\n  gt\n    /* \"#utility.yul\":1434:1490   */\n  iszero\n  tag_57\n  jumpi\n    /* \"#utility.yul\":1470:1488   */\n  tag_58\n  tag_27\n  jump\t// in\ntag_58:\n    /* \"#utility.yul\":1434:1490   */\ntag_57:\n    /* \"#utility.yul\":1508:1537   */\n  tag_59\n    /* \"#utility.yul\":1530:1536   */\n  dup3\n    /* \"#utility.yul\":1508:1537   */\n  tag_26\n  jump\t// in\ntag_59:\n    /* \"#utility.yul\":1500:1537   */\n  swap1\n  pop\n    /* \"#utility.yul\":1592:1596   */\n  0x20\n    /* \"#utility.yul\":1586:1590   */\n  dup2\n    /* \"#utility.yul\":1582:1597   */\n  add\n    /* \"#utility.yul\":1574:1597   */\n  swap1\n  pop\n    /* \"#utility.yul\":1296:1604   */\n  swap2\n  swap1\n  pop\n  jump\t// out\n    /* \"#utility.yul\":1610:1917   */\ntag_31:\n    /* \"#utility.yul\":1678:1679   */\n  0x00\n    /* \"#utility.yul\":1688:1801   */\ntag_61:\n    /* \"#utility.yul\":1702:1708   */\n  dup4\n    /* \"#utility.yul\":1699:1700   */\n  dup2\n    /* \"#utility.yul\":1696:1709   */\n  lt\n    /* \"#utility.yul\":1688:1801   */\n  iszero\n  tag_63\n  jumpi\n    /* \"#utility.yul\":1787:1788   */\n  dup1\n    /* \"#utility.yul\":1782:1785   */\n  dup3\n    /* \"#utility.yul\":1778:1789   */\n  add\n    /* \"#utility.yul\":1772:1790   */\n  mload\n    /* \"#utility.yul\":1768:1769   */\n  dup2\n    /* \"#utility.yul\":1763:1766   */\n  dup5\n    /* \"#utility.yul\":1759:1770   */\n  add\n    /* \"#utility.yul\":1752:1791   */\n  mstore\n    /* \"#utility.yul\":1724:1726   */\n  0x20\n    /* \"#utility.yul\":1721:1722   */\n  dup2\n    /* \"#utility.yul\":1717:1727   */\n  add\n    /* \"#utility.yul\":1712:1727   */\n  swap1\n  pop\n    /* \"#utility.yul\":1688:1801   */\n  jump(tag_61)\ntag_63:\n    /* \"#utility.yul\":1819:1825   */\n  dup4\n    /* \"#utility.yul\":1816:1817   */\n  dup2\n    /* \"#utility.yul\":1813:1826   */\n  gt\n    /* \"#utility.yul\":1810:1911   */\n  iszero\n  tag_64\n  jumpi\n    /* \"#utility.yul\":1899:1900   */\n  0x00\n    /* \"#utility.yul\":1890:1896   */\n  dup5\n    /* \"#utility.yul\":1885:1888   */\n  dup5\n    /* \"#utility.yul\":1881:1897   */\n  add\n    /* \"#utility.yul\":1874:1901   */\n  mstore\n    /* \"#utility.yul\":1810:1911   */\ntag_64:\n    /* \"#utility.yul\":1659:1917   */\n  pop\n    /* \"#utility.yul\":1610:1917   */\n  pop\n  pop\n  pop\n  jump\t// out\n    /* \"#utility.yul\":1923:2344   */\ntag_32:\n    /* \"#utility.yul\":2012:2017   */\n  0x00\n    /* \"#utility.yul\":2037:2103   */\n  tag_66\n    /* \"#utility.yul\":2053:2102   */\n  tag_67\n    /* \"#utility.yul\":2095:2101   */\n  dup5\n    /* \"#utility.yul\":2053:2102   */\n  tag_30\n  jump\t// in\ntag_67:\n    /* \"#utility.yul\":2037:2103   */\n  tag_29\n  jump\t// in\ntag_66:\n    /* \"#utility.yul\":2028:2103   */\n  swap1\n  pop\n    /* \"#utility.yul\":2126:2132   */\n  dup3\n    /* \"#utility.yul\":2119:2124   */\n  dup2\n    /* \"#utility.yul\":2112:2133   */\n  mstore\n    /* \"#utility.yul\":2164:2168   */\n  0x20\n    /* \"#utility.yul\":2157:2162   */\n  dup2\n    /* \"#utility.yul\":2153:2169   */\n  add\n    /* \"#utility.yul\":2202:2205   */\n  dup5\n    /* \"#utility.yul\":2193:2199   */\n  dup5\n    /* \"#utility.yul\":2188:2191   */\n  dup5\n    /* \"#utility.yul\":2184:2200   */\n  add\n    /* \"#utility.yul\":2181:2206   */\n  gt\n    /* \"#utility.yul\":2178:2290   */\n  iszero\n  tag_68\n  jumpi\n    /* \"#utility.yul\":2209:2288   */\n  tag_69\n  tag_25\n  jump\t// in\ntag_69:\n    /* \"#utility.yul\":2178:2290   */\ntag_68:\n    /* \"#utility.yul\":2299:2338   */\n  tag_70\n    /* \"#utility.yul\":2331:2337   */\n  dup5\n    /* \"#utility.yul\":2326:2329   */\n  dup3\n    /* \"#utility.yul\":2321:2324   */\n  dup6\n    /* \"#utility.yul\":2299:2338   */\n  tag_31\n  jump\t// in\ntag_70:\n    /* \"#utility.yul\":2018:2344   */\n  pop\n    /* \"#utility.yul\":1923:2344   */\n  swap4\n  swap3\n  pop\n  pop\n  pop\n  jump\t// out\n    /* \"#utility.yul\":2364:2719   */\ntag_33:\n    /* \"#utility.yul\":2431:2436   */\n  0x00\n    /* \"#utility.yul\":2480:2483   */\n  dup3\n    /* \"#utility.yul\":2473:2477   */\n  0x1f\n    /* \"#utility.yul\":2465:2471   */\n  dup4\n    /* \"#utility.yul\":2461:2478   */\n  add\n    /* \"#utility.yul\":2457:2484   */\n  slt\n    /* \"#utility.yul\":2447:2569   */\n  tag_72\n  jumpi\n    /* \"#utility.yul\":2488:2567   */\n  tag_73\n  tag_24\n  jump\t// in\ntag_73:\n    /* \"#utility.yul\":2447:2569   */\ntag_72:\n    /* \"#utility.yul\":2598:2604   */\n  dup2\n    /* \"#utility.yul\":2592:2605   */\n  mload\n    /* \"#utility.yul\":2623:2713   */\n  tag_74\n    /* \"#utility.yul\":2709:2712   */\n  dup5\n    /* \"#utility.yul\":2701:2707   */\n  dup3\n    /* \"#utility.yul\":2694:2698   */\n  0x20\n    /* \"#utility.yul\":2686:2692   */\n  dup7\n    /* \"#utility.yul\":2682:2699   */\n  add\n    /* \"#utility.yul\":2623:2713   */\n  tag_32\n  jump\t// in\ntag_74:\n    /* \"#utility.yul\":2614:2713   */\n  swap2\n  pop\n    /* \"#utility.yul\":2437:2719   */\n  pop\n    /* \"#utility.yul\":2364:2719   */\n  swap3\n  swap2\n  pop\n  pop\n  jump\t// out\n    /* \"#utility.yul\":2725:2811   */\ntag_34:\n    /* \"#utility.yul\":2760:2767   */\n  0x00\n    /* \"#utility.yul\":2800:2804   */\n  0xff\n    /* \"#utility.yul\":2793:2798   */\n  dup3\n    /* \"#utility.yul\":2789:2805   */\n  and\n    /* \"#utility.yul\":2778:2805   */\n  swap1\n  pop\n    /* \"#utility.yul\":2725:2811   */\n  swap2\n  swap1\n  pop\n  jump\t// out\n    /* \"#utility.yul\":2817:2935   */\ntag_35:\n    /* \"#utility.yul\":2888:2910   */\n  tag_77\n    /* \"#utility.yul\":2904:2909   */\n  dup2\n    /* \"#utility.yul\":2888:2910   */\n  tag_34\n  jump\t// in\ntag_77:\n    /* \"#utility.yul\":2881:2886   */\n  dup2\n    /* \"#utility.yul\":2878:2911   */\n  eq\n    /* \"#utility.yul\":2868:2929   */\n  tag_78\n  jumpi\n    /* \"#utility.yul\":2925:2926   */\n  0x00\n    /* \"#utility.yul\":2922:2923   */\n  dup1\n    /* \"#utility.yul\":2915:2927   */\n  revert\n    /* \"#utility.yul\":2868:2929   */\ntag_78:\n    /* \"#utility.yul\":2817:2935   */\n  pop\n  jump\t// out\n    /* \"#utility.yul\":2941:3080   */\ntag_36:\n    /* \"#utility.yul\":2996:3001   */\n  0x00\n    /* \"#utility.yul\":3027:3033   */\n  dup2\n    /* \"#utility.yul\":3021:3034   */\n  mload\n    /* \"#utility.yul\":3012:3034   */\n  swap1\n  pop\n    /* \"#utility.yul\":3043:3074   */\n  tag_80\n    /* \"#utility.yul\":3068:3073   */\n  dup2\n    /* \"#utility.yul\":3043:3074   */\n  tag_35\n  jump\t// in\ntag_80:\n    /* \"#utility.yul\":2941:3080   */\n  swap3\n  swap2\n  pop\n  pop\n  jump\t// out\n    /* \"#utility.yul\":3086:3163   */\ntag_37:\n    /* \"#utility.yul\":3123:3130   */\n  0x00\n    /* \"#utility.yul\":3152:3157   */\n  dup2\n    /* \"#utility.yul\":3141:3157   */\n  swap1\n  pop\n    /* \"#utility.yul\":3086:3163   */\n  swap2\n  swap1\n  pop\n  jump\t// out\n    /* \"#utility.yul\":3169:3291   */\ntag_38:\n    /* \"#utility.yul\":3242:3266   */\n  tag_83\n    /* \"#utility.yul\":3260:3265   */\n  dup2\n    /* \"#utility.yul\":3242:3266   */\n  tag_37\n  jump\t// in\ntag_83:\n    /* \"#utility.yul\":3235:3240   */\n  dup2\n    /* \"#utility.yul\":3232:3267   */\n  eq\n    /* \"#utility.yul\":3222:3285   */\n  tag_84\n  jumpi\n    /* \"#utility.yul\":3281:3282   */\n  0x00\n    /* \"#utility.yul\":3278:3279   */\n  dup1\n    /* \"#utility.yul\":3271:3283   */\n  revert\n    /* \"#utility.yul\":3222:3285   */\ntag_84:\n    /* \"#utility.yul\":3169:3291   */\n  pop\n  jump\t// out\n    /* \"#utility.yul\":3297:3440   */\ntag_39:\n    /* \"#utility.yul\":3354:3359   */\n  0x00\n    /* \"#utility.yul\":3385:3391   */\n  dup2\n    /* \"#utility.yul\":3379:3392   */\n  mload\n    /* \"#utility.yul\":3370:3392   */\n  swap1\n  pop\n    /* \"#utility.yul\":3401:3434   */\n  tag_86\n    /* \"#utility.yul\":3428:3433   */\n  dup2\n    /* \"#utility.yul\":3401:3434   */\n  tag_38\n  jump\t// in\ntag_86:\n    /* \"#utility.yul\":3297:3440   */\n  swap3\n  swap2\n  pop\n  pop\n  jump\t// out\n    /* \"#utility.yul\":3446:4608   */\ntag_3:\n    /* \"#utility.yul\":3561:3567   */\n  0x00\n    /* \"#utility.yul\":3569:3575   */\n  dup1\n    /* \"#utility.yul\":3577:3583   */\n  0x00\n    /* \"#utility.yul\":3585:3591   */\n  dup1\n    /* \"#utility.yul\":3634:3637   */\n  0x80\n    /* \"#utility.yul\":3622:3631   */\n  dup6\n    /* \"#utility.yul\":3613:3620   */\n  dup8\n    /* \"#utility.yul\":3609:3632   */\n  sub\n    /* \"#utility.yul\":3605:3638   */\n  slt\n    /* \"#utility.yul\":3602:3722   */\n  iszero\n  tag_88\n  jumpi\n    /* \"#utility.yul\":3641:3720   */\n  tag_89\n  tag_22\n  jump\t// in\ntag_89:\n    /* \"#utility.yul\":3602:3722   */\ntag_88:\n    /* \"#utility.yul\":3782:3783   */\n  0x00\n    /* \"#utility.yul\":3771:3780   */\n  dup6\n    /* \"#utility.yul\":3767:3784   */\n  add\n    /* \"#utility.yul\":3761:3785   */\n  mload\n    /* \"#utility.yul\":3812:3830   */\n  0xffffffffffffffff\n    /* \"#utility.yul\":3804:3810   */\n  dup2\n    /* \"#utility.yul\":3801:3831   */\n  gt\n    /* \"#utility.yul\":3798:3915   */\n  iszero\n  tag_90\n  jumpi\n    /* \"#utility.yul\":3834:3913   */\n  tag_91\n  tag_23\n  jump\t// in\ntag_91:\n    /* \"#utility.yul\":3798:3915   */\ntag_90:\n    /* \"#utility.yul\":3939:4013   */\n  tag_92\n    /* \"#utility.yul\":4005:4012   */\n  dup8\n    /* \"#utility.yul\":3996:4002   */\n  dup3\n    /* \"#utility.yul\":3985:3994   */\n  dup9\n    /* \"#utility.yul\":3981:4003   */\n  add\n    /* \"#utility.yul\":3939:4013   */\n  tag_33\n  jump\t// in\ntag_92:\n    /* \"#utility.yul\":3929:4013   */\n  swap5\n  pop\n    /* \"#utility.yul\":3732:4023   */\n  pop\n    /* \"#utility.yul\":4083:4085   */\n  0x20\n    /* \"#utility.yul\":4072:4081   */\n  dup6\n    /* \"#utility.yul\":4068:4086   */\n  add\n    /* \"#utility.yul\":4062:4087   */\n  mload\n    /* \"#utility.yul\":4114:4132   */\n  0xffffffffffffffff\n    /* \"#utility.yul\":4106:4112   */\n  dup2\n    /* \"#utility.yul\":4103:4133   */\n  gt\n    /* \"#utility.yul\":4100:4217   */\n  iszero\n  tag_93\n  jumpi\n    /* \"#utility.yul\":4136:4215   */\n  tag_94\n  tag_23\n  jump\t// in\ntag_94:\n    /* \"#utility.yul\":4100:4217   */\ntag_93:\n    /* \"#utility.yul\":4241:4315   */\n  tag_95\n    /* \"#utility.yul\":4307:4314   */\n  dup8\n    /* \"#utility.yul\":4298:4304   */\n  dup3\n    /* \"#utility.yul\":4287:4296   */\n  dup9\n    /* \"#utility.yul\":4283:4305   */\n  add\n    /* \"#utility.yul\":4241:4315   */\n  tag_33\n  jump\t// in\ntag_95:\n    /* \"#utility.yul\":4231:4315   */\n  swap4\n  pop\n    /* \"#utility.yul\":4033:4325   */\n  pop\n    /* \"#utility.yul\":4364:4366   */\n  0x40\n    /* \"#utility.yul\":4390:4452   */\n  tag_96\n    /* \"#utility.yul\":4444:4451   */\n  dup8\n    /* \"#utility.yul\":4435:4441   */\n  dup3\n    /* \"#utility.yul\":4424:4433   */\n  dup9\n    /* \"#utility.yul\":4420:4442   */\n  add\n    /* \"#utility.yul\":4390:4452   */\n  tag_36\n  jump\t// in\ntag_96:\n    /* \"#utility.yul\":4380:4452   */\n  swap3\n  pop\n    /* \"#utility.yul\":4335:4462   */\n  pop\n    /* \"#utility.yul\":4501:4503   */\n  0x60\n    /* \"#utility.yul\":4527:4591   */\n  tag_97\n    /* \"#utility.yul\":4583:4590   */\n  dup8\n    /* \"#utility.yul\":4574:4580   */\n  dup3\n    /* \"#utility.yul\":4563:4572   */\n  dup9\n    /* \"#utility.yul\":4559:4581   */\n  add\n    /* \"#utility.yul\":4527:4591   */\n  tag_39\n  jump\t// in\ntag_97:\n    /* \"#utility.yul\":4517:4591   */\n  swap2\n  pop\n    /* \"#utility.yul\":4472:4601   */\n  pop\n    /* \"#utility.yul\":3446:4608   */\n  swap3\n  swap6\n  swap2\n  swap5\n  pop\n  swap3\n  pop\n  jump\t// out\n    /* \"#utility.yul\":4614:4794   */\ntag_40:\n    /* \"#utility.yul\":4662:4739   */\n  0x4e487b7100000000000000000000000000000000000000000000000000000000\n    /* \"#utility.yul\":4659:4660   */\n  0x00\n    /* \"#utility.yul\":4652:4740   */\n  mstore\n    /* \"#utility.yul\":4759:4763   */\n  0x22\n    /* \"#utility.yul\":4756:4757   */\n  0x04\n    /* \"#utility.yul\":4749:4764   */\n  mstore\n    /* \"#utility.yul\":4783:4787   */\n  0x24\n    /* \"#utility.yul\":4780:4781   */\n  0x00\n    /* \"#utility.yul\":4773:4788   */\n  revert\n    /* \"#utility.yul\":4800:5120   */\ntag_11:\n    /* \"#utility.yul\":4844:4850   */\n  0x00\n    /* \"#utility.yul\":4881:4882   */\n  0x02\n    /* \"#utility.yul\":4875:4879   */\n  dup3\n    /* \"#utility.yul\":4871:4883   */\n  div\n    /* \"#utility.yul\":4861:4883   */\n  swap1\n  pop\n    /* \"#utility.yul\":4928:4929   */\n  0x01\n    /* \"#utility.yul\":4922:4926   */\n  dup3\n    /* \"#utility.yul\":4918:4930   */\n  and\n    /* \"#utility.yul\":4949:4967   */\n  dup1\n    /* \"#utility.yul\":4939:5020   */\n  tag_100\n  jumpi\n    /* \"#utility.yul\":5005:5009   */\n  0x7f\n    /* \"#utility.yul\":4997:5003   */\n  dup3\n    /* \"#utility.yul\":4993:5010   */\n  and\n    /* \"#utility.yul\":4983:5010   */\n  swap2\n  pop\n    /* \"#utility.yul\":4939:5020   */\ntag_100:\n    /* \"#utility.yul\":5067:5069   */\n  0x20\n    /* \"#utility.yul\":5059:5065   */\n  dup3\n    /* \"#utility.yul\":5056:5070   */\n  lt\n    /* \"#utility.yul\":5036:5054   */\n  dup2\n    /* \"#utility.yul\":5033:5071   */\n  sub\n    /* \"#utility.yul\":5030:5114   */\n  tag_101\n  jumpi\n    /* \"#utility.yul\":5086:5104   */\n  tag_102\n  tag_40\n  jump\t// in\ntag_102:\n    /* \"#utility.yul\":5030:5114   */\ntag_101:\n    /* \"#utility.yul\":4851:5120   */\n  pop\n    /* \"#utility.yul\":4800:5120   */\n  swap2\n  swap1\n  pop\n  jump\t// out\n    /* \"contracts/GregorLandToken.sol\":87:2157  contract GregorLandToken is IERC20 {... */\ntag_9:\n  dataSize(sub_0)\n  dup1\n  dataOffset(sub_0)\n  0x00\n  codecopy\n  0x00\n  return\nstop\n\nsub_0: assembly {\n        /* \"contracts/GregorLandToken.sol\":87:2157  contract GregorLandToken is IERC20 {... */\n      mstore(0x40, 0x80)\n      callvalue\n      dup1\n      iszero\n      tag_1\n      jumpi\n      0x00\n      dup1\n      revert\n    tag_1:\n      pop\n      jumpi(tag_2, lt(calldatasize, 0x04))\n      shr(0xe0, calldataload(0x00))\n      dup1\n      0x324536eb\n      gt\n      tag_13\n      jumpi\n      dup1\n      0x324536eb\n      eq\n      tag_8\n      jumpi\n      dup1\n      0x70a08231\n      eq\n      tag_9\n      jumpi\n      dup1\n      0x95d89b41\n      eq\n      tag_10\n      jumpi\n      dup1\n      0xa9059cbb\n      eq\n      tag_11\n      jumpi\n      dup1\n      0xdd62ed3e\n      eq\n      tag_12\n      jumpi\n      jump(tag_2)\n    tag_13:\n      dup1\n      0x06fdde03\n      eq\n      tag_3\n      jumpi\n      dup1\n      0x095ea7b3\n      eq\n      tag_4\n      jumpi\n      dup1\n      0x18160ddd\n      eq\n      tag_5\n      jumpi\n      dup1\n      0x23b872dd\n      eq\n      tag_6\n      jumpi\n      dup1\n      0x313ce567\n      eq\n      tag_7\n      jumpi\n    tag_2:\n      0x00\n      dup1\n      revert\n        /* \"contracts/GregorLandToken.sol\":164:184  string  public  name */\n    tag_3:\n      tag_14\n      tag_15\n      jump\t// in\n    tag_14:\n      mload(0x40)\n      tag_16\n      swap2\n      swap1\n      tag_17\n      jump\t// in\n    tag_16:\n      mload(0x40)\n      dup1\n      swap2\n      sub\n      swap1\n      return\n        /* \"contracts/GregorLandToken.sol\":1287:1511  function approve(address delegate, uint256 numTokens) public override returns (bool) {... */\n    tag_4:\n      tag_18\n      0x04\n      dup1\n      calldatasize\n      sub\n      dup2\n      add\n      swap1\n      tag_19\n      swap2\n      swap1\n      tag_20\n      jump\t// in\n    tag_19:\n      tag_21\n      jump\t// in\n    tag_18:\n      mload(0x40)\n      tag_22\n      swap2\n      swap1\n      tag_23\n      jump\t// in\n    tag_22:\n      mload(0x40)\n      dup1\n      swap2\n      sub\n      swap1\n      return\n        /* \"contracts/GregorLandToken.sol\":679:779  function totalSupply() public override view returns (uint256) {... */\n    tag_5:\n      tag_24\n      tag_25\n      jump\t// in\n    tag_24:\n      mload(0x40)\n      tag_26\n      swap2\n      swap1\n      tag_27\n      jump\t// in\n    tag_26:\n      mload(0x40)\n      dup1\n      swap2\n      sub\n      swap1\n      return\n        /* \"contracts/GregorLandToken.sol\":1665:2154  function transferFrom(address owner, address buyer, uint256 numTokens) public override returns (bool) {... */\n    tag_6:\n      tag_28\n      0x04\n      dup1\n      calldatasize\n      sub\n      dup2\n      add\n      swap1\n      tag_29\n      swap2\n      swap1\n      tag_30\n      jump\t// in\n    tag_29:\n      tag_31\n      jump\t// in\n    tag_28:\n      mload(0x40)\n      tag_32\n      swap2\n      swap1\n      tag_23\n      jump\t// in\n    tag_32:\n      mload(0x40)\n      dup1\n      swap2\n      sub\n      swap1\n      return\n        /* \"contracts/GregorLandToken.sol\":220:244  uint8   public  decimals */\n    tag_7:\n      tag_33\n      tag_34\n      jump\t// in\n    tag_33:\n      mload(0x40)\n      tag_35\n      swap2\n      swap1\n      tag_36\n      jump\t// in\n    tag_35:\n      mload(0x40)\n      dup1\n      swap2\n      sub\n      swap1\n      return\n        /* \"contracts/GregorLandToken.sol\":251:279  uint256 public  totalSupply_ */\n    tag_8:\n      tag_37\n      tag_38\n      jump\t// in\n    tag_37:\n      mload(0x40)\n      tag_39\n      swap2\n      swap1\n      tag_27\n      jump\t// in\n    tag_39:\n      mload(0x40)\n      dup1\n      swap2\n      sub\n      swap1\n      return\n        /* \"contracts/GregorLandToken.sol\":787:911  function balanceOf(address tokenOwner) public override view returns (uint256) {... */\n    tag_9:\n      tag_40\n      0x04\n      dup1\n      calldatasize\n      sub\n      dup2\n      add\n      swap1\n      tag_41\n      swap2\n      swap1\n      tag_42\n      jump\t// in\n    tag_41:\n      tag_43\n      jump\t// in\n    tag_40:\n      mload(0x40)\n      tag_44\n      swap2\n      swap1\n      tag_27\n      jump\t// in\n    tag_44:\n      mload(0x40)\n      dup1\n      swap2\n      sub\n      swap1\n      return\n        /* \"contracts/GregorLandToken.sol\":191:213  string  public  symbol */\n    tag_10:\n      tag_45\n      tag_46\n      jump\t// in\n    tag_45:\n      mload(0x40)\n      tag_47\n      swap2\n      swap1\n      tag_17\n      jump\t// in\n    tag_47:\n      mload(0x40)\n      dup1\n      swap2\n      sub\n      swap1\n      return\n        /* \"contracts/GregorLandToken.sol\":919:1279  function transfer(address receiver, uint256 numTokens) public override returns (bool) {... */\n    tag_11:\n      tag_48\n      0x04\n      dup1\n      calldatasize\n      sub\n      dup2\n      add\n      swap1\n      tag_49\n      swap2\n      swap1\n      tag_20\n      jump\t// in\n    tag_49:\n      tag_50\n      jump\t// in\n    tag_48:\n      mload(0x40)\n      tag_51\n      swap2\n      swap1\n      tag_23\n      jump\t// in\n    tag_51:\n      mload(0x40)\n      dup1\n      swap2\n      sub\n      swap1\n      return\n        /* \"contracts/GregorLandToken.sol\":1519:1657  function allowance(address owner, address delegate) public override view returns (uint) {... */\n    tag_12:\n      tag_52\n      0x04\n      dup1\n      calldatasize\n      sub\n      dup2\n      add\n      swap1\n      tag_53\n      swap2\n      swap1\n      tag_54\n      jump\t// in\n    tag_53:\n      tag_55\n      jump\t// in\n    tag_52:\n      mload(0x40)\n      tag_56\n      swap2\n      swap1\n      tag_27\n      jump\t// in\n    tag_56:\n      mload(0x40)\n      dup1\n      swap2\n      sub\n      swap1\n      return\n        /* \"contracts/GregorLandToken.sol\":164:184  string  public  name */\n    tag_15:\n      0x00\n      dup1\n      sload\n      tag_57\n      swap1\n      tag_58\n      jump\t// in\n    tag_57:\n      dup1\n      0x1f\n      add\n      0x20\n      dup1\n      swap2\n      div\n      mul\n      0x20\n      add\n      mload(0x40)\n      swap1\n      dup2\n      add\n      0x40\n      mstore\n      dup1\n      swap3\n      swap2\n      swap1\n      dup2\n      dup2\n      mstore\n      0x20\n      add\n      dup3\n      dup1\n      sload\n      tag_59\n      swap1\n      tag_58\n      jump\t// in\n    tag_59:\n      dup1\n      iszero\n      tag_60\n      jumpi\n      dup1\n      0x1f\n      lt\n      tag_61\n      jumpi\n      0x0100\n      dup1\n      dup4\n      sload\n      div\n      mul\n      dup4\n      mstore\n      swap2\n      0x20\n      add\n      swap2\n      jump(tag_60)\n    tag_61:\n      dup3\n      add\n      swap2\n      swap1\n      0x00\n      mstore\n      keccak256(0x00, 0x20)\n      swap1\n    tag_62:\n      dup2\n      sload\n      dup2\n      mstore\n      swap1\n      0x01\n      add\n      swap1\n      0x20\n      add\n      dup1\n      dup4\n      gt\n      tag_62\n      jumpi\n      dup3\n      swap1\n      sub\n      0x1f\n      and\n      dup3\n      add\n      swap2\n    tag_60:\n      pop\n      pop\n      pop\n      pop\n      pop\n      dup2\n      jump\t// out\n        /* \"contracts/GregorLandToken.sol\":1287:1511  function approve(address delegate, uint256 numTokens) public override returns (bool) {... */\n    tag_21:\n        /* \"contracts/GregorLandToken.sol\":1366:1370  bool */\n      0x00\n        /* \"contracts/GregorLandToken.sol\":1415:1424  numTokens */\n      dup2\n        /* \"contracts/GregorLandToken.sol\":1383:1390  allowed */\n      0x05\n        /* \"contracts/GregorLandToken.sol\":1383:1402  allowed[msg.sender] */\n      0x00\n        /* \"contracts/GregorLandToken.sol\":1391:1401  msg.sender */\n      caller\n        /* \"contracts/GregorLandToken.sol\":1383:1402  allowed[msg.sender] */\n      0xffffffffffffffffffffffffffffffffffffffff\n      and\n      0xffffffffffffffffffffffffffffffffffffffff\n      and\n      dup2\n      mstore\n      0x20\n      add\n      swap1\n      dup2\n      mstore\n      0x20\n      add\n      0x00\n      keccak256\n        /* \"contracts/GregorLandToken.sol\":1383:1412  allowed[msg.sender][delegate] */\n      0x00\n        /* \"contracts/GregorLandToken.sol\":1403:1411  delegate */\n      dup6\n        /* \"contracts/GregorLandToken.sol\":1383:1412  allowed[msg.sender][delegate] */\n      0xffffffffffffffffffffffffffffffffffffffff\n      and\n      0xffffffffffffffffffffffffffffffffffffffff\n      and\n      dup2\n      mstore\n      0x20\n      add\n      swap1\n      dup2\n      mstore\n      0x20\n      add\n      0x00\n      keccak256\n        /* \"contracts/GregorLandToken.sol\":1383:1424  allowed[msg.sender][delegate] = numTokens */\n      dup2\n      swap1\n      sstore\n      pop\n        /* \"contracts/GregorLandToken.sol\":1461:1469  delegate */\n      dup3\n        /* \"contracts/GregorLandToken.sol\":1440:1481  Approval(msg.sender, delegate, numTokens) */\n      0xffffffffffffffffffffffffffffffffffffffff\n      and\n        /* \"contracts/GregorLandToken.sol\":1449:1459  msg.sender */\n      caller\n        /* \"contracts/GregorLandToken.sol\":1440:1481  Approval(msg.sender, delegate, numTokens) */\n      0xffffffffffffffffffffffffffffffffffffffff\n      and\n      0x8c5be1e5ebec7d5bd14f71427d1e84f3dd0314c0f7b2291e5b200ac8c7c3b925\n        /* \"contracts/GregorLandToken.sol\":1471:1480  numTokens */\n      dup5\n        /* \"contracts/GregorLandToken.sol\":1440:1481  Approval(msg.sender, delegate, numTokens) */\n      mload(0x40)\n      tag_64\n      swap2\n      swap1\n      tag_27\n      jump\t// in\n    tag_64:\n      mload(0x40)\n      dup1\n      swap2\n      sub\n      swap1\n      log3\n        /* \"contracts/GregorLandToken.sol\":1499:1503  true */\n      0x01\n        /* \"contracts/GregorLandToken.sol\":1492:1503  return true */\n      swap1\n      pop\n        /* \"contracts/GregorLandToken.sol\":1287:1511  function approve(address delegate, uint256 numTokens) public override returns (bool) {... */\n      swap3\n      swap2\n      pop\n      pop\n      jump\t// out\n        /* \"contracts/GregorLandToken.sol\":679:779  function totalSupply() public override view returns (uint256) {... */\n    tag_25:\n        /* \"contracts/GregorLandToken.sol\":732:739  uint256 */\n      0x00\n        /* \"contracts/GregorLandToken.sol\":759:771  totalSupply_ */\n      sload(0x03)\n        /* \"contracts/GregorLandToken.sol\":752:771  return totalSupply_ */\n      swap1\n      pop\n        /* \"contracts/GregorLandToken.sol\":679:779  function totalSupply() public override view returns (uint256) {... */\n      swap1\n      jump\t// out\n        /* \"contracts/GregorLandToken.sol\":1665:2154  function transferFrom(address owner, address buyer, uint256 numTokens) public override returns (bool) {... */\n    tag_31:\n        /* \"contracts/GregorLandToken.sol\":1761:1765  bool */\n      0x00\n        /* \"contracts/GregorLandToken.sol\":1799:1807  balances */\n      0x04\n        /* \"contracts/GregorLandToken.sol\":1799:1814  balances[owner] */\n      0x00\n        /* \"contracts/GregorLandToken.sol\":1808:1813  owner */\n      dup6\n        /* \"contracts/GregorLandToken.sol\":1799:1814  balances[owner] */\n      0xffffffffffffffffffffffffffffffffffffffff\n      and\n      0xffffffffffffffffffffffffffffffffffffffff\n      and\n      dup2\n      mstore\n      0x20\n      add\n      swap1\n      dup2\n      mstore\n      0x20\n      add\n      0x00\n      keccak256\n      sload\n        /* \"contracts/GregorLandToken.sol\":1786:1795  numTokens */\n      dup3\n        /* \"contracts/GregorLandToken.sol\":1786:1814  numTokens <= balances[owner] */\n      gt\n      iszero\n        /* \"contracts/GregorLandToken.sol\":1778:1815  require(numTokens <= balances[owner]) */\n      tag_67\n      jumpi\n      0x00\n      dup1\n      revert\n    tag_67:\n        /* \"contracts/GregorLandToken.sol\":1847:1854  allowed */\n      0x05\n        /* \"contracts/GregorLandToken.sol\":1847:1861  allowed[owner] */\n      0x00\n        /* \"contracts/GregorLandToken.sol\":1855:1860  owner */\n      dup6\n        /* \"contracts/GregorLandToken.sol\":1847:1861  allowed[owner] */\n      0xffffffffffffffffffffffffffffffffffffffff\n      and\n      0xffffffffffffffffffffffffffffffffffffffff\n      and\n      dup2\n      mstore\n      0x20\n      add\n      swap1\n      dup2\n      mstore\n      0x20\n      add\n      0x00\n      keccak256\n        /* \"contracts/GregorLandToken.sol\":1847:1873  allowed[owner][msg.sender] */\n      0x00\n        /* \"contracts/GregorLandToken.sol\":1862:1872  msg.sender */\n      caller\n        /* \"contracts/GregorLandToken.sol\":1847:1873  allowed[owner][msg.sender] */\n      0xffffffffffffffffffffffffffffffffffffffff\n      and\n      0xffffffffffffffffffffffffffffffffffffffff\n      and\n      dup2\n      mstore\n      0x20\n      add\n      swap1\n      dup2\n      mstore\n      0x20\n      add\n      0x00\n      keccak256\n      sload\n        /* \"contracts/GregorLandToken.sol\":1834:1843  numTokens */\n      dup3\n        /* \"contracts/GregorLandToken.sol\":1834:1873  numTokens <= allowed[owner][msg.sender] */\n      gt\n      iszero\n        /* \"contracts/GregorLandToken.sol\":1826:1874  require(numTokens <= allowed[owner][msg.sender]) */\n      tag_68\n      jumpi\n      0x00\n      dup1\n      revert\n    tag_68:\n        /* \"contracts/GregorLandToken.sol\":1905:1935  balances[owner].sub(numTokens) */\n      tag_69\n        /* \"contracts/GregorLandToken.sol\":1925:1934  numTokens */\n      dup3\n        /* \"contracts/GregorLandToken.sol\":1905:1913  balances */\n      0x04\n        /* \"contracts/GregorLandToken.sol\":1905:1920  balances[owner] */\n      0x00\n        /* \"contracts/GregorLandToken.sol\":1914:1919  owner */\n      dup8\n        /* \"contracts/GregorLandToken.sol\":1905:1920  balances[owner] */\n      0xffffffffffffffffffffffffffffffffffffffff\n      and\n      0xffffffffffffffffffffffffffffffffffffffff\n      and\n      dup2\n      mstore\n      0x20\n      add\n      swap1\n      dup2\n      mstore\n      0x20\n      add\n      0x00\n      keccak256\n      sload\n        /* \"contracts/GregorLandToken.sol\":1905:1924  balances[owner].sub */\n      tag_70\n      swap1\n        /* \"contracts/GregorLandToken.sol\":1905:1935  balances[owner].sub(numTokens) */\n      swap2\n      swap1\n      0xffffffff\n      and\n      jump\t// in\n    tag_69:\n        /* \"contracts/GregorLandToken.sol\":1887:1895  balances */\n      0x04\n        /* \"contracts/GregorLandToken.sol\":1887:1902  balances[owner] */\n      0x00\n        /* \"contracts/GregorLandToken.sol\":1896:1901  owner */\n      dup7\n        /* \"contracts/GregorLandToken.sol\":1887:1902  balances[owner] */\n      0xffffffffffffffffffffffffffffffffffffffff\n      and\n      0xffffffffffffffffffffffffffffffffffffffff\n      and\n      dup2\n      mstore\n      0x20\n      add\n      swap1\n      dup2\n      mstore\n      0x20\n      add\n      0x00\n      keccak256\n        /* \"contracts/GregorLandToken.sol\":1887:1935  balances[owner] = balances[owner].sub(numTokens) */\n      dup2\n      swap1\n      sstore\n      pop\n        /* \"contracts/GregorLandToken.sol\":1975:2016  allowed[owner][msg.sender].sub(numTokens) */\n      tag_71\n        /* \"contracts/GregorLandToken.sol\":2006:2015  numTokens */\n      dup3\n        /* \"contracts/GregorLandToken.sol\":1975:1982  allowed */\n      0x05\n        /* \"contracts/GregorLandToken.sol\":1975:1989  allowed[owner] */\n      0x00\n        /* \"contracts/GregorLandToken.sol\":1983:1988  owner */\n      dup8\n        /* \"contracts/GregorLandToken.sol\":1975:1989  allowed[owner] */\n      0xffffffffffffffffffffffffffffffffffffffff\n      and\n      0xffffffffffffffffffffffffffffffffffffffff\n      and\n      dup2\n      mstore\n      0x20\n      add\n      swap1\n      dup2\n      mstore\n      0x20\n      add\n      0x00\n      keccak256\n        /* \"contracts/GregorLandToken.sol\":1975:2001  allowed[owner][msg.sender] */\n      0x00\n        /* \"contracts/GregorLandToken.sol\":1990:2000  msg.sender */\n      caller\n        /* \"contracts/GregorLandToken.sol\":1975:2001  allowed[owner][msg.sender] */\n      0xffffffffffffffffffffffffffffffffffffffff\n      and\n      0xffffffffffffffffffffffffffffffffffffffff\n      and\n      dup2\n      mstore\n      0x20\n      add\n      swap1\n      dup2\n      mstore\n      0x20\n      add\n      0x00\n      keccak256\n      sload\n        /* \"contracts/GregorLandToken.sol\":1975:2005  allowed[owner][msg.sender].sub */\n      tag_70\n      swap1\n        /* \"contracts/GregorLandToken.sol\":1975:2016  allowed[owner][msg.sender].sub(numTokens) */\n      swap2\n      swap1\n      0xffffffff\n      and\n      jump\t// in\n    tag_71:\n        /* \"contracts/GregorLandToken.sol\":1946:1953  allowed */\n      0x05\n        /* \"contracts/GregorLandToken.sol\":1946:1960  allowed[owner] */\n      0x00\n        /* \"contracts/GregorLandToken.sol\":1954:1959  owner */\n      dup7\n        /* \"contracts/GregorLandToken.sol\":1946:1960  allowed[owner] */\n      0xffffffffffffffffffffffffffffffffffffffff\n      and\n      0xffffffffffffffffffffffffffffffffffffffff\n      and\n      dup2\n      mstore\n      0x20\n      add\n      swap1\n      dup2\n      mstore\n      0x20\n      add\n      0x00\n      keccak256\n        /* \"contracts/GregorLandToken.sol\":1946:1972  allowed[owner][msg.sender] */\n      0x00\n        /* \"contracts/GregorLandToken.sol\":1961:1971  msg.sender */\n      caller\n        /* \"contracts/GregorLandToken.sol\":1946:1972  allowed[owner][msg.sender] */\n      0xffffffffffffffffffffffffffffffffffffffff\n      and\n      0xffffffffffffffffffffffffffffffffffffffff\n      and\n      dup2\n      mstore\n      0x20\n      add\n      swap1\n      dup2\n      mstore\n      0x20\n      add\n      0x00\n      keccak256\n        /* \"contracts/GregorLandToken.sol\":1946:2016  allowed[owner][msg.sender] = allowed[owner][msg.sender].sub(numTokens) */\n      dup2\n      swap1\n      sstore\n      pop\n        /* \"contracts/GregorLandToken.sol\":2045:2075  balances[buyer].add(numTokens) */\n      tag_72\n        /* \"contracts/GregorLandToken.sol\":2065:2074  numTokens */\n      dup3\n        /* \"contracts/GregorLandToken.sol\":2045:2053  balances */\n      0x04\n        /* \"contracts/GregorLandToken.sol\":2045:2060  balances[buyer] */\n      0x00\n        /* \"contracts/GregorLandToken.sol\":2054:2059  buyer */\n      dup7\n        /* \"contracts/GregorLandToken.sol\":2045:2060  balances[buyer] */\n      0xffffffffffffffffffffffffffffffffffffffff\n      and\n      0xffffffffffffffffffffffffffffffffffffffff\n      and\n      dup2\n      mstore\n      0x20\n      add\n      swap1\n      dup2\n      mstore\n      0x20\n      add\n      0x00\n      keccak256\n      sload\n        /* \"contracts/GregorLandToken.sol\":2045:2064  balances[buyer].add */\n      tag_73\n      swap1\n        /* \"contracts/GregorLandToken.sol\":2045:2075  balances[buyer].add(numTokens) */\n      swap2\n      swap1\n      0xffffffff\n      and\n      jump\t// in\n    tag_72:\n        /* \"contracts/GregorLandToken.sol\":2027:2035  balances */\n      0x04\n        /* \"contracts/GregorLandToken.sol\":2027:2042  balances[buyer] */\n      0x00\n        /* \"contracts/GregorLandToken.sol\":2036:2041  buyer */\n      dup6\n        /* \"contracts/GregorLandToken.sol\":2027:2042  balances[buyer] */\n      0xffffffffffffffffffffffffffffffffffffffff\n      and\n      0xffffffffffffffffffffffffffffffffffffffff\n      and\n      dup2\n      mstore\n      0x20\n      add\n      swap1\n      dup2\n      mstore\n      0x20\n      add\n      0x00\n      keccak256\n        /* \"contracts/GregorLandToken.sol\":2027:2075  balances[buyer] = balances[buyer].add(numTokens) */\n      dup2\n      swap1\n      sstore\n      pop\n        /* \"contracts/GregorLandToken.sol\":2107:2112  buyer */\n      dup3\n        /* \"contracts/GregorLandToken.sol\":2091:2124  Transfer(owner, buyer, numTokens) */\n      0xffffffffffffffffffffffffffffffffffffffff\n      and\n        /* \"contracts/GregorLandToken.sol\":2100:2105  owner */\n      dup5\n        /* \"contracts/GregorLandToken.sol\":2091:2124  Transfer(owner, buyer, numTokens) */\n      0xffffffffffffffffffffffffffffffffffffffff\n      and\n      0xddf252ad1be2c89b69c2b068fc378daa952ba7f163c4a11628f55a4df523b3ef\n        /* \"contracts/GregorLandToken.sol\":2114:2123  numTokens */\n      dup5\n        /* \"contracts/GregorLandToken.sol\":2091:2124  Transfer(owner, buyer, numTokens) */\n      mload(0x40)\n      tag_74\n      swap2\n      swap1\n      tag_27\n      jump\t// in\n    tag_74:\n      mload(0x40)\n      dup1\n      swap2\n      sub\n      swap1\n      log3\n        /* \"contracts/GregorLandToken.sol\":2142:2146  true */\n      0x01\n        /* \"contracts/GregorLandToken.sol\":2135:2146  return true */\n      swap1\n      pop\n        /* \"contracts/GregorLandToken.sol\":1665:2154  function transferFrom(address owner, address buyer, uint256 numTokens) public override returns (bool) {... */\n      swap4\n      swap3\n      pop\n      pop\n      pop\n      jump\t// out\n        /* \"contracts/GregorLandToken.sol\":220:244  uint8   public  decimals */\n    tag_34:\n      0x02\n      0x00\n      swap1\n      sload\n      swap1\n      0x0100\n      exp\n      swap1\n      div\n      0xff\n      and\n      dup2\n      jump\t// out\n        /* \"contracts/GregorLandToken.sol\":251:279  uint256 public  totalSupply_ */\n    tag_38:\n      sload(0x03)\n      dup2\n      jump\t// out\n        /* \"contracts/GregorLandToken.sol\":787:911  function balanceOf(address tokenOwner) public override view returns (uint256) {... */\n    tag_43:\n        /* \"contracts/GregorLandToken.sol\":856:863  uint256 */\n      0x00\n        /* \"contracts/GregorLandToken.sol\":883:891  balances */\n      0x04\n        /* \"contracts/GregorLandToken.sol\":883:903  balances[tokenOwner] */\n      0x00\n        /* \"contracts/GregorLandToken.sol\":892:902  tokenOwner */\n      dup4\n        /* \"contracts/GregorLandToken.sol\":883:903  balances[tokenOwner] */\n      0xffffffffffffffffffffffffffffffffffffffff\n      and\n      0xffffffffffffffffffffffffffffffffffffffff\n      and\n      dup2\n      mstore\n      0x20\n      add\n      swap1\n      dup2\n      mstore\n      0x20\n      add\n      0x00\n      keccak256\n      sload\n        /* \"contracts/GregorLandToken.sol\":876:903  return balances[tokenOwner] */\n      swap1\n      pop\n        /* \"contracts/GregorLandToken.sol\":787:911  function balanceOf(address tokenOwner) public override view returns (uint256) {... */\n      swap2\n      swap1\n      pop\n      jump\t// out\n        /* \"contracts/GregorLandToken.sol\":191:213  string  public  symbol */\n    tag_46:\n      0x01\n      dup1\n      sload\n      tag_76\n      swap1\n      tag_58\n      jump\t// in\n    tag_76:\n      dup1\n      0x1f\n      add\n      0x20\n      dup1\n      swap2\n      div\n      mul\n      0x20\n      add\n      mload(0x40)\n      swap1\n      dup2\n      add\n      0x40\n      mstore\n      dup1\n      swap3\n      swap2\n      swap1\n      dup2\n      dup2\n      mstore\n      0x20\n      add\n      dup3\n      dup1\n      sload\n      tag_77\n      swap1\n      tag_58\n      jump\t// in\n    tag_77:\n      dup1\n      iszero\n      tag_78\n      jumpi\n      dup1\n      0x1f\n      lt\n      tag_79\n      jumpi\n      0x0100\n      dup1\n      dup4\n      sload\n      div\n      mul\n      dup4\n      mstore\n      swap2\n      0x20\n      add\n      swap2\n      jump(tag_78)\n    tag_79:\n      dup3\n      add\n      swap2\n      swap1\n      0x00\n      mstore\n      keccak256(0x00, 0x20)\n      swap1\n    tag_80:\n      dup2\n      sload\n      dup2\n      mstore\n      swap1\n      0x01\n      add\n      swap1\n      0x20\n      add\n      dup1\n      dup4\n      gt\n      tag_80\n      jumpi\n      dup3\n      swap1\n      sub\n      0x1f\n      and\n      dup3\n      add\n      swap2\n    tag_78:\n      pop\n      pop\n      pop\n      pop\n      pop\n      dup2\n      jump\t// out\n        /* \"contracts/GregorLandToken.sol\":919:1279  function transfer(address receiver, uint256 numTokens) public override returns (bool) {... */\n    tag_50:\n        /* \"contracts/GregorLandToken.sol\":999:1003  bool */\n      0x00\n        /* \"contracts/GregorLandToken.sol\":1037:1045  balances */\n      0x04\n        /* \"contracts/GregorLandToken.sol\":1037:1057  balances[msg.sender] */\n      0x00\n        /* \"contracts/GregorLandToken.sol\":1046:1056  msg.sender */\n      caller\n        /* \"contracts/GregorLandToken.sol\":1037:1057  balances[msg.sender] */\n      0xffffffffffffffffffffffffffffffffffffffff\n      and\n      0xffffffffffffffffffffffffffffffffffffffff\n      and\n      dup2\n      mstore\n      0x20\n      add\n      swap1\n      dup2\n      mstore\n      0x20\n      add\n      0x00\n      keccak256\n      sload\n        /* \"contracts/GregorLandToken.sol\":1024:1033  numTokens */\n      dup3\n        /* \"contracts/GregorLandToken.sol\":1024:1057  numTokens <= balances[msg.sender] */\n      gt\n      iszero\n        /* \"contracts/GregorLandToken.sol\":1016:1058  require(numTokens <= balances[msg.sender]) */\n      tag_82\n      jumpi\n      0x00\n      dup1\n      revert\n    tag_82:\n        /* \"contracts/GregorLandToken.sol\":1092:1127  balances[msg.sender].sub(numTokens) */\n      tag_83\n        /* \"contracts/GregorLandToken.sol\":1117:1126  numTokens */\n      dup3\n        /* \"contracts/GregorLandToken.sol\":1092:1100  balances */\n      0x04\n        /* \"contracts/GregorLandToken.sol\":1092:1112  balances[msg.sender] */\n      0x00\n        /* \"contracts/GregorLandToken.sol\":1101:1111  msg.sender */\n      caller\n        /* \"contracts/GregorLandToken.sol\":1092:1112  balances[msg.sender] */\n      0xffffffffffffffffffffffffffffffffffffffff\n      and\n      0xffffffffffffffffffffffffffffffffffffffff\n      and\n      dup2\n      mstore\n      0x20\n      add\n      swap1\n      dup2\n      mstore\n      0x20\n      add\n      0x00\n      keccak256\n      sload\n        /* \"contracts/GregorLandToken.sol\":1092:1116  balances[msg.sender].sub */\n      tag_70\n      swap1\n        /* \"contracts/GregorLandToken.sol\":1092:1127  balances[msg.sender].sub(numTokens) */\n      swap2\n      swap1\n      0xffffffff\n      and\n      jump\t// in\n    tag_83:\n        /* \"contracts/GregorLandToken.sol\":1069:1077  balances */\n      0x04\n        /* \"contracts/GregorLandToken.sol\":1069:1089  balances[msg.sender] */\n      0x00\n        /* \"contracts/GregorLandToken.sol\":1078:1088  msg.sender */\n      caller\n        /* \"contracts/GregorLandToken.sol\":1069:1089  balances[msg.sender] */\n      0xffffffffffffffffffffffffffffffffffffffff\n      and\n      0xffffffffffffffffffffffffffffffffffffffff\n      and\n      dup2\n      mstore\n      0x20\n      add\n      swap1\n      dup2\n      mstore\n      0x20\n      add\n      0x00\n      keccak256\n        /* \"contracts/GregorLandToken.sol\":1069:1127  balances[msg.sender] = balances[msg.sender].sub(numTokens) */\n      dup2\n      swap1\n      sstore\n      pop\n        /* \"contracts/GregorLandToken.sol\":1159:1192  balances[receiver].add(numTokens) */\n      tag_84\n        /* \"contracts/GregorLandToken.sol\":1182:1191  numTokens */\n      dup3\n        /* \"contracts/GregorLandToken.sol\":1159:1167  balances */\n      0x04\n        /* \"contracts/GregorLandToken.sol\":1159:1177  balances[receiver] */\n      0x00\n        /* \"contracts/GregorLandToken.sol\":1168:1176  receiver */\n      dup7\n        /* \"contracts/GregorLandToken.sol\":1159:1177  balances[receiver] */\n      0xffffffffffffffffffffffffffffffffffffffff\n      and\n      0xffffffffffffffffffffffffffffffffffffffff\n      and\n      dup2\n      mstore\n      0x20\n      add\n      swap1\n      dup2\n      mstore\n      0x20\n      add\n      0x00\n      keccak256\n      sload\n        /* \"contracts/GregorLandToken.sol\":1159:1181  balances[receiver].add */\n      tag_73\n      swap1\n        /* \"contracts/GregorLandToken.sol\":1159:1192  balances[receiver].add(numTokens) */\n      swap2\n      swap1\n      0xffffffff\n      and\n      jump\t// in\n    tag_84:\n        /* \"contracts/GregorLandToken.sol\":1138:1146  balances */\n      0x04\n        /* \"contracts/GregorLandToken.sol\":1138:1156  balances[receiver] */\n      0x00\n        /* \"contracts/GregorLandToken.sol\":1147:1155  receiver */\n      dup6\n        /* \"contracts/GregorLandToken.sol\":1138:1156  balances[receiver] */\n      0xffffffffffffffffffffffffffffffffffffffff\n      and\n      0xffffffffffffffffffffffffffffffffffffffff\n      and\n      dup2\n      mstore\n      0x20\n      add\n      swap1\n      dup2\n      mstore\n      0x20\n      add\n      0x00\n      keccak256\n        /* \"contracts/GregorLandToken.sol\":1138:1192  balances[receiver] = balances[receiver].add(numTokens) */\n      dup2\n      swap1\n      sstore\n      pop\n        /* \"contracts/GregorLandToken.sol\":1229:1237  receiver */\n      dup3\n        /* \"contracts/GregorLandToken.sol\":1208:1249  Transfer(msg.sender, receiver, numTokens) */\n      0xffffffffffffffffffffffffffffffffffffffff\n      and\n        /* \"contracts/GregorLandToken.sol\":1217:1227  msg.sender */\n      caller\n        /* \"contracts/GregorLandToken.sol\":1208:1249  Transfer(msg.sender, receiver, numTokens) */\n      0xffffffffffffffffffffffffffffffffffffffff\n      and\n      0xddf252ad1be2c89b69c2b068fc378daa952ba7f163c4a11628f55a4df523b3ef\n        /* \"contracts/GregorLandToken.sol\":1239:1248  numTokens */\n      dup5\n        /* \"contracts/GregorLandToken.sol\":1208:1249  Transfer(msg.sender, receiver, numTokens) */\n      mload(0x40)\n      tag_85\n      swap2\n      swap1\n      tag_27\n      jump\t// in\n    tag_85:\n      mload(0x40)\n      dup1\n      swap2\n      sub\n      swap1\n      log3\n        /* \"contracts/GregorLandToken.sol\":1267:1271  true */\n      0x01\n        /* \"contracts/GregorLandToken.sol\":1260:1271  return true */\n      swap1\n      pop\n        /* \"contracts/GregorLandToken.sol\":919:1279  function transfer(address receiver, uint256 numTokens) public override returns (bool) {... */\n      swap3\n      swap2\n      pop\n      pop\n      jump\t// out\n        /* \"contracts/GregorLandToken.sol\":1519:1657  function allowance(address owner, address delegate) public override view returns (uint) {... */\n    tag_55:\n        /* \"contracts/GregorLandToken.sol\":1601:1605  uint */\n      0x00\n        /* \"contracts/GregorLandToken.sol\":1625:1632  allowed */\n      0x05\n        /* \"contracts/GregorLandToken.sol\":1625:1639  allowed[owner] */\n      0x00\n        /* \"contracts/GregorLandToken.sol\":1633:1638  owner */\n      dup5\n        /* \"contracts/GregorLandToken.sol\":1625:1639  allowed[owner] */\n      0xffffffffffffffffffffffffffffffffffffffff\n      and\n      0xffffffffffffffffffffffffffffffffffffffff\n      and\n      dup2\n      mstore\n      0x20\n      add\n      swap1\n      dup2\n      mstore\n      0x20\n      add\n      0x00\n      keccak256\n        /* \"contracts/GregorLandToken.sol\":1625:1649  allowed[owner][delegate] */\n      0x00\n        /* \"contracts/GregorLandToken.sol\":1640:1648  delegate */\n      dup4\n        /* \"contracts/GregorLandToken.sol\":1625:1649  allowed[owner][delegate] */\n      0xffffffffffffffffffffffffffffffffffffffff\n      and\n      0xffffffffffffffffffffffffffffffffffffffff\n      and\n      dup2\n      mstore\n      0x20\n      add\n      swap1\n      dup2\n      mstore\n      0x20\n      add\n      0x00\n      keccak256\n      sload\n        /* \"contracts/GregorLandToken.sol\":1618:1649  return allowed[owner][delegate] */\n      swap1\n      pop\n        /* \"contracts/GregorLandToken.sol\":1519:1657  function allowance(address owner, address delegate) public override view returns (uint) {... */\n      swap3\n      swap2\n      pop\n      pop\n      jump\t// out\n        /* \"contracts/GregorLandToken.sol\":2185:2304  function sub(uint256 a, uint256 b) internal pure returns (uint256) {... */\n    tag_70:\n        /* \"contracts/GregorLandToken.sol\":2243:2250  uint256 */\n      0x00\n        /* \"contracts/GregorLandToken.sol\":2273:2274  a */\n      dup3\n        /* \"contracts/GregorLandToken.sol\":2268:2269  b */\n      dup3\n        /* \"contracts/GregorLandToken.sol\":2268:2274  b <= a */\n      gt\n      iszero\n        /* \"contracts/GregorLandToken.sol\":2261:2275  assert(b <= a) */\n      tag_88\n      jumpi\n      tag_89\n      tag_90\n      jump\t// in\n    tag_89:\n    tag_88:\n        /* \"contracts/GregorLandToken.sol\":2295:2296  b */\n      dup2\n        /* \"contracts/GregorLandToken.sol\":2291:2292  a */\n      dup4\n        /* \"contracts/GregorLandToken.sol\":2291:2296  a - b */\n      tag_91\n      swap2\n      swap1\n      tag_92\n      jump\t// in\n    tag_91:\n        /* \"contracts/GregorLandToken.sol\":2284:2296  return a - b */\n      swap1\n      pop\n        /* \"contracts/GregorLandToken.sol\":2185:2304  function sub(uint256 a, uint256 b) internal pure returns (uint256) {... */\n      swap3\n      swap2\n      pop\n      pop\n      jump\t// out\n        /* \"contracts/GregorLandToken.sol\":2312:2453  function add(uint256 a, uint256 b) internal pure returns (uint256) {... */\n    tag_73:\n        /* \"contracts/GregorLandToken.sol\":2370:2377  uint256 */\n      0x00\n        /* \"contracts/GregorLandToken.sol\":2388:2397  uint256 c */\n      dup1\n        /* \"contracts/GregorLandToken.sol\":2404:2405  b */\n      dup3\n        /* \"contracts/GregorLandToken.sol\":2400:2401  a */\n      dup5\n        /* \"contracts/GregorLandToken.sol\":2400:2405  a + b */\n      tag_94\n      swap2\n      swap1\n      tag_95\n      jump\t// in\n    tag_94:\n        /* \"contracts/GregorLandToken.sol\":2388:2405  uint256 c = a + b */\n      swap1\n      pop\n        /* \"contracts/GregorLandToken.sol\":2426:2427  a */\n      dup4\n        /* \"contracts/GregorLandToken.sol\":2421:2422  c */\n      dup2\n        /* \"contracts/GregorLandToken.sol\":2421:2427  c >= a */\n      lt\n      iszero\n        /* \"contracts/GregorLandToken.sol\":2414:2428  assert(c >= a) */\n      tag_96\n      jumpi\n      tag_97\n      tag_90\n      jump\t// in\n    tag_97:\n    tag_96:\n        /* \"contracts/GregorLandToken.sol\":2444:2445  c */\n      dup1\n        /* \"contracts/GregorLandToken.sol\":2437:2445  return c */\n      swap2\n      pop\n      pop\n        /* \"contracts/GregorLandToken.sol\":2312:2453  function add(uint256 a, uint256 b) internal pure returns (uint256) {... */\n      swap3\n      swap2\n      pop\n      pop\n      jump\t// out\n        /* \"#utility.yul\":7:106   */\n    tag_98:\n        /* \"#utility.yul\":59:65   */\n      0x00\n        /* \"#utility.yul\":93:98   */\n      dup2\n        /* \"#utility.yul\":87:99   */\n      mload\n        /* \"#utility.yul\":77:99   */\n      swap1\n      pop\n        /* \"#utility.yul\":7:106   */\n      swap2\n      swap1\n      pop\n      jump\t// out\n        /* \"#utility.yul\":112:281   */\n    tag_99:\n        /* \"#utility.yul\":196:207   */\n      0x00\n        /* \"#utility.yul\":230:236   */\n      dup3\n        /* \"#utility.yul\":225:228   */\n      dup3\n        /* \"#utility.yul\":218:237   */\n      mstore\n        /* \"#utility.yul\":270:274   */\n      0x20\n        /* \"#utility.yul\":265:268   */\n      dup3\n        /* \"#utility.yul\":261:275   */\n      add\n        /* \"#utility.yul\":246:275   */\n      swap1\n      pop\n        /* \"#utility.yul\":112:281   */\n      swap3\n      swap2\n      pop\n      pop\n      jump\t// out\n        /* \"#utility.yul\":287:594   */\n    tag_100:\n        /* \"#utility.yul\":355:356   */\n      0x00\n        /* \"#utility.yul\":365:478   */\n    tag_124:\n        /* \"#utility.yul\":379:385   */\n      dup4\n        /* \"#utility.yul\":376:377   */\n      dup2\n        /* \"#utility.yul\":373:386   */\n      lt\n        /* \"#utility.yul\":365:478   */\n      iszero\n      tag_126\n      jumpi\n        /* \"#utility.yul\":464:465   */\n      dup1\n        /* \"#utility.yul\":459:462   */\n      dup3\n        /* \"#utility.yul\":455:466   */\n      add\n        /* \"#utility.yul\":449:467   */\n      mload\n        /* \"#utility.yul\":445:446   */\n      dup2\n        /* \"#utility.yul\":440:443   */\n      dup5\n        /* \"#utility.yul\":436:447   */\n      add\n        /* \"#utility.yul\":429:468   */\n      mstore\n        /* \"#utility.yul\":401:403   */\n      0x20\n        /* \"#utility.yul\":398:399   */\n      dup2\n        /* \"#utility.yul\":394:404   */\n      add\n        /* \"#utility.yul\":389:404   */\n      swap1\n      pop\n        /* \"#utility.yul\":365:478   */\n      jump(tag_124)\n    tag_126:\n        /* \"#utility.yul\":496:502   */\n      dup4\n        /* \"#utility.yul\":493:494   */\n      dup2\n        /* \"#utility.yul\":490:503   */\n      gt\n        /* \"#utility.yul\":487:588   */\n      iszero\n      tag_127\n      jumpi\n        /* \"#utility.yul\":576:577   */\n      0x00\n        /* \"#utility.yul\":567:573   */\n      dup5\n        /* \"#utility.yul\":562:565   */\n      dup5\n        /* \"#utility.yul\":558:574   */\n      add\n        /* \"#utility.yul\":551:578   */\n      mstore\n        /* \"#utility.yul\":487:588   */\n    tag_127:\n        /* \"#utility.yul\":336:594   */\n      pop\n        /* \"#utility.yul\":287:594   */\n      pop\n      pop\n      pop\n      jump\t// out\n        /* \"#utility.yul\":600:702   */\n    tag_101:\n        /* \"#utility.yul\":641:647   */\n      0x00\n        /* \"#utility.yul\":692:694   */\n      0x1f\n        /* \"#utility.yul\":688:695   */\n      not\n        /* \"#utility.yul\":683:685   */\n      0x1f\n        /* \"#utility.yul\":676:681   */\n      dup4\n        /* \"#utility.yul\":672:686   */\n      add\n        /* \"#utility.yul\":668:696   */\n      and\n        /* \"#utility.yul\":658:696   */\n      swap1\n      pop\n        /* \"#utility.yul\":600:702   */\n      swap2\n      swap1\n      pop\n      jump\t// out\n        /* \"#utility.yul\":708:1072   */\n    tag_102:\n        /* \"#utility.yul\":796:799   */\n      0x00\n        /* \"#utility.yul\":824:863   */\n      tag_130\n        /* \"#utility.yul\":857:862   */\n      dup3\n        /* \"#utility.yul\":824:863   */\n      tag_98\n      jump\t// in\n    tag_130:\n        /* \"#utility.yul\":879:950   */\n      tag_131\n        /* \"#utility.yul\":943:949   */\n      dup2\n        /* \"#utility.yul\":938:941   */\n      dup6\n        /* \"#utility.yul\":879:950   */\n      tag_99\n      jump\t// in\n    tag_131:\n        /* \"#utility.yul\":872:950   */\n      swap4\n      pop\n        /* \"#utility.yul\":959:1011   */\n      tag_132\n        /* \"#utility.yul\":1004:1010   */\n      dup2\n        /* \"#utility.yul\":999:1002   */\n      dup6\n        /* \"#utility.yul\":992:996   */\n      0x20\n        /* \"#utility.yul\":985:990   */\n      dup7\n        /* \"#utility.yul\":981:997   */\n      add\n        /* \"#utility.yul\":959:1011   */\n      tag_100\n      jump\t// in\n    tag_132:\n        /* \"#utility.yul\":1036:1065   */\n      tag_133\n        /* \"#utility.yul\":1058:1064   */\n      dup2\n        /* \"#utility.yul\":1036:1065   */\n      tag_101\n      jump\t// in\n    tag_133:\n        /* \"#utility.yul\":1031:1034   */\n      dup5\n        /* \"#utility.yul\":1027:1066   */\n      add\n        /* \"#utility.yul\":1020:1066   */\n      swap2\n      pop\n        /* \"#utility.yul\":800:1072   */\n      pop\n        /* \"#utility.yul\":708:1072   */\n      swap3\n      swap2\n      pop\n      pop\n      jump\t// out\n        /* \"#utility.yul\":1078:1391   */\n    tag_17:\n        /* \"#utility.yul\":1191:1195   */\n      0x00\n        /* \"#utility.yul\":1229:1231   */\n      0x20\n        /* \"#utility.yul\":1218:1227   */\n      dup3\n        /* \"#utility.yul\":1214:1232   */\n      add\n        /* \"#utility.yul\":1206:1232   */\n      swap1\n      pop\n        /* \"#utility.yul\":1278:1287   */\n      dup2\n        /* \"#utility.yul\":1272:1276   */\n      dup2\n        /* \"#utility.yul\":1268:1288   */\n      sub\n        /* \"#utility.yul\":1264:1265   */\n      0x00\n        /* \"#utility.yul\":1253:1262   */\n      dup4\n        /* \"#utility.yul\":1249:1266   */\n      add\n        /* \"#utility.yul\":1242:1289   */\n      mstore\n        /* \"#utility.yul\":1306:1384   */\n      tag_135\n        /* \"#utility.yul\":1379:1383   */\n      dup2\n        /* \"#utility.yul\":1370:1376   */\n      dup5\n        /* \"#utility.yul\":1306:1384   */\n      tag_102\n      jump\t// in\n    tag_135:\n        /* \"#utility.yul\":1298:1384   */\n      swap1\n      pop\n        /* \"#utility.yul\":1078:1391   */\n      swap3\n      swap2\n      pop\n      pop\n      jump\t// out\n        /* \"#utility.yul\":1478:1595   */\n    tag_104:\n        /* \"#utility.yul\":1587:1588   */\n      0x00\n        /* \"#utility.yul\":1584:1585   */\n      dup1\n        /* \"#utility.yul\":1577:1589   */\n      revert\n        /* \"#utility.yul\":1724:1850   */\n    tag_106:\n        /* \"#utility.yul\":1761:1768   */\n      0x00\n        /* \"#utility.yul\":1801:1843   */\n      0xffffffffffffffffffffffffffffffffffffffff\n        /* \"#utility.yul\":1794:1799   */\n      dup3\n        /* \"#utility.yul\":1790:1844   */\n      and\n        /* \"#utility.yul\":1779:1844   */\n      swap1\n      pop\n        /* \"#utility.yul\":1724:1850   */\n      swap2\n      swap1\n      pop\n      jump\t// out\n        /* \"#utility.yul\":1856:1952   */\n    tag_107:\n        /* \"#utility.yul\":1893:1900   */\n      0x00\n        /* \"#utility.yul\":1922:1946   */\n      tag_141\n        /* \"#utility.yul\":1940:1945   */\n      dup3\n        /* \"#utility.yul\":1922:1946   */\n      tag_106\n      jump\t// in\n    tag_141:\n        /* \"#utility.yul\":1911:1946   */\n      swap1\n      pop\n        /* \"#utility.yul\":1856:1952   */\n      swap2\n      swap1\n      pop\n      jump\t// out\n        /* \"#utility.yul\":1958:2080   */\n    tag_108:\n        /* \"#utility.yul\":2031:2055   */\n      tag_143\n        /* \"#utility.yul\":2049:2054   */\n      dup2\n        /* \"#utility.yul\":2031:2055   */\n      tag_107\n      jump\t// in\n    tag_143:\n        /* \"#utility.yul\":2024:2029   */\n      dup2\n        /* \"#utility.yul\":2021:2056   */\n      eq\n        /* \"#utility.yul\":2011:2074   */\n      tag_144\n      jumpi\n        /* \"#utility.yul\":2070:2071   */\n      0x00\n        /* \"#utility.yul\":2067:2068   */\n      dup1\n        /* \"#utility.yul\":2060:2072   */\n      revert\n        /* \"#utility.yul\":2011:2074   */\n    tag_144:\n        /* \"#utility.yul\":1958:2080   */\n      pop\n      jump\t// out\n        /* \"#utility.yul\":2086:2225   */\n    tag_109:\n        /* \"#utility.yul\":2132:2137   */\n      0x00\n        /* \"#utility.yul\":2170:2176   */\n      dup2\n        /* \"#utility.yul\":2157:2177   */\n      calldataload\n        /* \"#utility.yul\":2148:2177   */\n      swap1\n      pop\n        /* \"#utility.yul\":2186:2219   */\n      tag_146\n        /* \"#utility.yul\":2213:2218   */\n      dup2\n        /* \"#utility.yul\":2186:2219   */\n      tag_108\n      jump\t// in\n    tag_146:\n        /* \"#utility.yul\":2086:2225   */\n      swap3\n      swap2\n      pop\n      pop\n      jump\t// out\n        /* \"#utility.yul\":2231:2308   */\n    tag_110:\n        /* \"#utility.yul\":2268:2275   */\n      0x00\n        /* \"#utility.yul\":2297:2302   */\n      dup2\n        /* \"#utility.yul\":2286:2302   */\n      swap1\n      pop\n        /* \"#utility.yul\":2231:2308   */\n      swap2\n      swap1\n      pop\n      jump\t// out\n        /* \"#utility.yul\":2314:2436   */\n    tag_111:\n        /* \"#utility.yul\":2387:2411   */\n      tag_149\n        /* \"#utility.yul\":2405:2410   */\n      dup2\n        /* \"#utility.yul\":2387:2411   */\n      tag_110\n      jump\t// in\n    tag_149:\n        /* \"#utility.yul\":2380:2385   */\n      dup2\n        /* \"#utility.yul\":2377:2412   */\n      eq\n        /* \"#utility.yul\":2367:2430   */\n      tag_150\n      jumpi\n        /* \"#utility.yul\":2426:2427   */\n      0x00\n        /* \"#utility.yul\":2423:2424   */\n      dup1\n        /* \"#utility.yul\":2416:2428   */\n      revert\n        /* \"#utility.yul\":2367:2430   */\n    tag_150:\n        /* \"#utility.yul\":2314:2436   */\n      pop\n      jump\t// out\n        /* \"#utility.yul\":2442:2581   */\n    tag_112:\n        /* \"#utility.yul\":2488:2493   */\n      0x00\n        /* \"#utility.yul\":2526:2532   */\n      dup2\n        /* \"#utility.yul\":2513:2533   */\n      calldataload\n        /* \"#utility.yul\":2504:2533   */\n      swap1\n      pop\n        /* \"#utility.yul\":2542:2575   */\n      tag_152\n        /* \"#utility.yul\":2569:2574   */\n      dup2\n        /* \"#utility.yul\":2542:2575   */\n      tag_111\n      jump\t// in\n    tag_152:\n        /* \"#utility.yul\":2442:2581   */\n      swap3\n      swap2\n      pop\n      pop\n      jump\t// out\n        /* \"#utility.yul\":2587:3061   */\n    tag_20:\n        /* \"#utility.yul\":2655:2661   */\n      0x00\n        /* \"#utility.yul\":2663:2669   */\n      dup1\n        /* \"#utility.yul\":2712:2714   */\n      0x40\n        /* \"#utility.yul\":2700:2709   */\n      dup4\n        /* \"#utility.yul\":2691:2698   */\n      dup6\n        /* \"#utility.yul\":2687:2710   */\n      sub\n        /* \"#utility.yul\":2683:2715   */\n      slt\n        /* \"#utility.yul\":2680:2799   */\n      iszero\n      tag_154\n      jumpi\n        /* \"#utility.yul\":2718:2797   */\n      tag_155\n      tag_104\n      jump\t// in\n    tag_155:\n        /* \"#utility.yul\":2680:2799   */\n    tag_154:\n        /* \"#utility.yul\":2838:2839   */\n      0x00\n        /* \"#utility.yul\":2863:2916   */\n      tag_156\n        /* \"#utility.yul\":2908:2915   */\n      dup6\n        /* \"#utility.yul\":2899:2905   */\n      dup3\n        /* \"#utility.yul\":2888:2897   */\n      dup7\n        /* \"#utility.yul\":2884:2906   */\n      add\n        /* \"#utility.yul\":2863:2916   */\n      tag_109\n      jump\t// in\n    tag_156:\n        /* \"#utility.yul\":2853:2916   */\n      swap3\n      pop\n        /* \"#utility.yul\":2809:2926   */\n      pop\n        /* \"#utility.yul\":2965:2967   */\n      0x20\n        /* \"#utility.yul\":2991:3044   */\n      tag_157\n        /* \"#utility.yul\":3036:3043   */\n      dup6\n        /* \"#utility.yul\":3027:3033   */\n      dup3\n        /* \"#utility.yul\":3016:3025   */\n      dup7\n        /* \"#utility.yul\":3012:3034   */\n      add\n        /* \"#utility.yul\":2991:3044   */\n      tag_112\n      jump\t// in\n    tag_157:\n        /* \"#utility.yul\":2981:3044   */\n      swap2\n      pop\n        /* \"#utility.yul\":2936:3054   */\n      pop\n        /* \"#utility.yul\":2587:3061   */\n      swap3\n      pop\n      swap3\n      swap1\n      pop\n      jump\t// out\n        /* \"#utility.yul\":3067:3157   */\n    tag_113:\n        /* \"#utility.yul\":3101:3108   */\n      0x00\n        /* \"#utility.yul\":3144:3149   */\n      dup2\n        /* \"#utility.yul\":3137:3150   */\n      iszero\n        /* \"#utility.yul\":3130:3151   */\n      iszero\n        /* \"#utility.yul\":3119:3151   */\n      swap1\n      pop\n        /* \"#utility.yul\":3067:3157   */\n      swap2\n      swap1\n      pop\n      jump\t// out\n        /* \"#utility.yul\":3163:3272   */\n    tag_114:\n        /* \"#utility.yul\":3244:3265   */\n      tag_160\n        /* \"#utility.yul\":3259:3264   */\n      dup2\n        /* \"#utility.yul\":3244:3265   */\n      tag_113\n      jump\t// in\n    tag_160:\n        /* \"#utility.yul\":3239:3242   */\n      dup3\n        /* \"#utility.yul\":3232:3266   */\n      mstore\n        /* \"#utility.yul\":3163:3272   */\n      pop\n      pop\n      jump\t// out\n        /* \"#utility.yul\":3278:3488   */\n    tag_23:\n        /* \"#utility.yul\":3365:3369   */\n      0x00\n        /* \"#utility.yul\":3403:3405   */\n      0x20\n        /* \"#utility.yul\":3392:3401   */\n      dup3\n        /* \"#utility.yul\":3388:3406   */\n      add\n        /* \"#utility.yul\":3380:3406   */\n      swap1\n      pop\n        /* \"#utility.yul\":3416:3481   */\n      tag_162\n        /* \"#utility.yul\":3478:3479   */\n      0x00\n        /* \"#utility.yul\":3467:3476   */\n      dup4\n        /* \"#utility.yul\":3463:3480   */\n      add\n        /* \"#utility.yul\":3454:3460   */\n      dup5\n        /* \"#utility.yul\":3416:3481   */\n      tag_114\n      jump\t// in\n    tag_162:\n        /* \"#utility.yul\":3278:3488   */\n      swap3\n      swap2\n      pop\n      pop\n      jump\t// out\n        /* \"#utility.yul\":3494:3612   */\n    tag_115:\n        /* \"#utility.yul\":3581:3605   */\n      tag_164\n        /* \"#utility.yul\":3599:3604   */\n      dup2\n        /* \"#utility.yul\":3581:3605   */\n      tag_110\n      jump\t// in\n    tag_164:\n        /* \"#utility.yul\":3576:3579   */\n      dup3\n        /* \"#utility.yul\":3569:3606   */\n      mstore\n        /* \"#utility.yul\":3494:3612   */\n      pop\n      pop\n      jump\t// out\n        /* \"#utility.yul\":3618:3840   */\n    tag_27:\n        /* \"#utility.yul\":3711:3715   */\n      0x00\n        /* \"#utility.yul\":3749:3751   */\n      0x20\n        /* \"#utility.yul\":3738:3747   */\n      dup3\n        /* \"#utility.yul\":3734:3752   */\n      add\n        /* \"#utility.yul\":3726:3752   */\n      swap1\n      pop\n        /* \"#utility.yul\":3762:3833   */\n      tag_166\n        /* \"#utility.yul\":3830:3831   */\n      0x00\n        /* \"#utility.yul\":3819:3828   */\n      dup4\n        /* \"#utility.yul\":3815:3832   */\n      add\n        /* \"#utility.yul\":3806:3812   */\n      dup5\n        /* \"#utility.yul\":3762:3833   */\n      tag_115\n      jump\t// in\n    tag_166:\n        /* \"#utility.yul\":3618:3840   */\n      swap3\n      swap2\n      pop\n      pop\n      jump\t// out\n        /* \"#utility.yul\":3846:4465   */\n    tag_30:\n        /* \"#utility.yul\":3923:3929   */\n      0x00\n        /* \"#utility.yul\":3931:3937   */\n      dup1\n        /* \"#utility.yul\":3939:3945   */\n      0x00\n        /* \"#utility.yul\":3988:3990   */\n      0x60\n        /* \"#utility.yul\":3976:3985   */\n      dup5\n        /* \"#utility.yul\":3967:3974   */\n      dup7\n        /* \"#utility.yul\":3963:3986   */\n      sub\n        /* \"#utility.yul\":3959:3991   */\n      slt\n        /* \"#utility.yul\":3956:4075   */\n      iszero\n      tag_168\n      jumpi\n        /* \"#utility.yul\":3994:4073   */\n      tag_169\n      tag_104\n      jump\t// in\n    tag_169:\n        /* \"#utility.yul\":3956:4075   */\n    tag_168:\n        /* \"#utility.yul\":4114:4115   */\n      0x00\n        /* \"#utility.yul\":4139:4192   */\n      tag_170\n        /* \"#utility.yul\":4184:4191   */\n      dup7\n        /* \"#utility.yul\":4175:4181   */\n      dup3\n        /* \"#utility.yul\":4164:4173   */\n      dup8\n        /* \"#utility.yul\":4160:4182   */\n      add\n        /* \"#utility.yul\":4139:4192   */\n      tag_109\n      jump\t// in\n    tag_170:\n        /* \"#utility.yul\":4129:4192   */\n      swap4\n      pop\n        /* \"#utility.yul\":4085:4202   */\n      pop\n        /* \"#utility.yul\":4241:4243   */\n      0x20\n        /* \"#utility.yul\":4267:4320   */\n      tag_171\n        /* \"#utility.yul\":4312:4319   */\n      dup7\n        /* \"#utility.yul\":4303:4309   */\n      dup3\n        /* \"#utility.yul\":4292:4301   */\n      dup8\n        /* \"#utility.yul\":4288:4310   */\n      add\n        /* \"#utility.yul\":4267:4320   */\n      tag_109\n      jump\t// in\n    tag_171:\n        /* \"#utility.yul\":4257:4320   */\n      swap3\n      pop\n        /* \"#utility.yul\":4212:4330   */\n      pop\n        /* \"#utility.yul\":4369:4371   */\n      0x40\n        /* \"#utility.yul\":4395:4448   */\n      tag_172\n        /* \"#utility.yul\":4440:4447   */\n      dup7\n        /* \"#utility.yul\":4431:4437   */\n      dup3\n        /* \"#utility.yul\":4420:4429   */\n      dup8\n        /* \"#utility.yul\":4416:4438   */\n      add\n        /* \"#utility.yul\":4395:4448   */\n      tag_112\n      jump\t// in\n    tag_172:\n        /* \"#utility.yul\":4385:4448   */\n      swap2\n      pop\n        /* \"#utility.yul\":4340:4458   */\n      pop\n        /* \"#utility.yul\":3846:4465   */\n      swap3\n      pop\n      swap3\n      pop\n      swap3\n      jump\t// out\n        /* \"#utility.yul\":4471:4557   */\n    tag_116:\n        /* \"#utility.yul\":4506:4513   */\n      0x00\n        /* \"#utility.yul\":4546:4550   */\n      0xff\n        /* \"#utility.yul\":4539:4544   */\n      dup3\n        /* \"#utility.yul\":4535:4551   */\n      and\n        /* \"#utility.yul\":4524:4551   */\n      swap1\n      pop\n        /* \"#utility.yul\":4471:4557   */\n      swap2\n      swap1\n      pop\n      jump\t// out\n        /* \"#utility.yul\":4563:4675   */\n    tag_117:\n        /* \"#utility.yul\":4646:4668   */\n      tag_175\n        /* \"#utility.yul\":4662:4667   */\n      dup2\n        /* \"#utility.yul\":4646:4668   */\n      tag_116\n      jump\t// in\n    tag_175:\n        /* \"#utility.yul\":4641:4644   */\n      dup3\n        /* \"#utility.yul\":4634:4669   */\n      mstore\n        /* \"#utility.yul\":4563:4675   */\n      pop\n      pop\n      jump\t// out\n        /* \"#utility.yul\":4681:4895   */\n    tag_36:\n        /* \"#utility.yul\":4770:4774   */\n      0x00\n        /* \"#utility.yul\":4808:4810   */\n      0x20\n        /* \"#utility.yul\":4797:4806   */\n      dup3\n        /* \"#utility.yul\":4793:4811   */\n      add\n        /* \"#utility.yul\":4785:4811   */\n      swap1\n      pop\n        /* \"#utility.yul\":4821:4888   */\n      tag_177\n        /* \"#utility.yul\":4885:4886   */\n      0x00\n        /* \"#utility.yul\":4874:4883   */\n      dup4\n        /* \"#utility.yul\":4870:4887   */\n      add\n        /* \"#utility.yul\":4861:4867   */\n      dup5\n        /* \"#utility.yul\":4821:4888   */\n      tag_117\n      jump\t// in\n    tag_177:\n        /* \"#utility.yul\":4681:4895   */\n      swap3\n      swap2\n      pop\n      pop\n      jump\t// out\n        /* \"#utility.yul\":4901:5230   */\n    tag_42:\n        /* \"#utility.yul\":4960:4966   */\n      0x00\n        /* \"#utility.yul\":5009:5011   */\n      0x20\n        /* \"#utility.yul\":4997:5006   */\n      dup3\n        /* \"#utility.yul\":4988:4995   */\n      dup5\n        /* \"#utility.yul\":4984:5007   */\n      sub\n        /* \"#utility.yul\":4980:5012   */\n      slt\n        /* \"#utility.yul\":4977:5096   */\n      iszero\n      tag_179\n      jumpi\n        /* \"#utility.yul\":5015:5094   */\n      tag_180\n      tag_104\n      jump\t// in\n    tag_180:\n        /* \"#utility.yul\":4977:5096   */\n    tag_179:\n        /* \"#utility.yul\":5135:5136   */\n      0x00\n        /* \"#utility.yul\":5160:5213   */\n      tag_181\n        /* \"#utility.yul\":5205:5212   */\n      dup5\n        /* \"#utility.yul\":5196:5202   */\n      dup3\n        /* \"#utility.yul\":5185:5194   */\n      dup6\n        /* \"#utility.yul\":5181:5203   */\n      add\n        /* \"#utility.yul\":5160:5213   */\n      tag_109\n      jump\t// in\n    tag_181:\n        /* \"#utility.yul\":5150:5213   */\n      swap2\n      pop\n        /* \"#utility.yul\":5106:5223   */\n      pop\n        /* \"#utility.yul\":4901:5230   */\n      swap3\n      swap2\n      pop\n      pop\n      jump\t// out\n        /* \"#utility.yul\":5236:5710   */\n    tag_54:\n        /* \"#utility.yul\":5304:5310   */\n      0x00\n        /* \"#utility.yul\":5312:5318   */\n      dup1\n        /* \"#utility.yul\":5361:5363   */\n      0x40\n        /* \"#utility.yul\":5349:5358   */\n      dup4\n        /* \"#utility.yul\":5340:5347   */\n      dup6\n        /* \"#utility.yul\":5336:5359   */\n      sub\n        /* \"#utility.yul\":5332:5364   */\n      slt\n        /* \"#utility.yul\":5329:5448   */\n      iszero\n      tag_183\n      jumpi\n        /* \"#utility.yul\":5367:5446   */\n      tag_184\n      tag_104\n      jump\t// in\n    tag_184:\n        /* \"#utility.yul\":5329:5448   */\n    tag_183:\n        /* \"#utility.yul\":5487:5488   */\n      0x00\n        /* \"#utility.yul\":5512:5565   */\n      tag_185\n        /* \"#utility.yul\":5557:5564   */\n      dup6\n        /* \"#utility.yul\":5548:5554   */\n      dup3\n        /* \"#utility.yul\":5537:5546   */\n      dup7\n        /* \"#utility.yul\":5533:5555   */\n      add\n        /* \"#utility.yul\":5512:5565   */\n      tag_109\n      jump\t// in\n    tag_185:\n        /* \"#utility.yul\":5502:5565   */\n      swap3\n      pop\n        /* \"#utility.yul\":5458:5575   */\n      pop\n        /* \"#utility.yul\":5614:5616   */\n      0x20\n        /* \"#utility.yul\":5640:5693   */\n      tag_186\n        /* \"#utility.yul\":5685:5692   */\n      dup6\n        /* \"#utility.yul\":5676:5682   */\n      dup3\n        /* \"#utility.yul\":5665:5674   */\n      dup7\n        /* \"#utility.yul\":5661:5683   */\n      add\n        /* \"#utility.yul\":5640:5693   */\n      tag_109\n      jump\t// in\n    tag_186:\n        /* \"#utility.yul\":5630:5693   */\n      swap2\n      pop\n        /* \"#utility.yul\":5585:5703   */\n      pop\n        /* \"#utility.yul\":5236:5710   */\n      swap3\n      pop\n      swap3\n      swap1\n      pop\n      jump\t// out\n        /* \"#utility.yul\":5716:5896   */\n    tag_118:\n        /* \"#utility.yul\":5764:5841   */\n      0x4e487b7100000000000000000000000000000000000000000000000000000000\n        /* \"#utility.yul\":5761:5762   */\n      0x00\n        /* \"#utility.yul\":5754:5842   */\n      mstore\n        /* \"#utility.yul\":5861:5865   */\n      0x22\n        /* \"#utility.yul\":5858:5859   */\n      0x04\n        /* \"#utility.yul\":5851:5866   */\n      mstore\n        /* \"#utility.yul\":5885:5889   */\n      0x24\n        /* \"#utility.yul\":5882:5883   */\n      0x00\n        /* \"#utility.yul\":5875:5890   */\n      revert\n        /* \"#utility.yul\":5902:6222   */\n    tag_58:\n        /* \"#utility.yul\":5946:5952   */\n      0x00\n        /* \"#utility.yul\":5983:5984   */\n      0x02\n        /* \"#utility.yul\":5977:5981   */\n      dup3\n        /* \"#utility.yul\":5973:5985   */\n      div\n        /* \"#utility.yul\":5963:5985   */\n      swap1\n      pop\n        /* \"#utility.yul\":6030:6031   */\n      0x01\n        /* \"#utility.yul\":6024:6028   */\n      dup3\n        /* \"#utility.yul\":6020:6032   */\n      and\n        /* \"#utility.yul\":6051:6069   */\n      dup1\n        /* \"#utility.yul\":6041:6122   */\n      tag_189\n      jumpi\n        /* \"#utility.yul\":6107:6111   */\n      0x7f\n        /* \"#utility.yul\":6099:6105   */\n      dup3\n        /* \"#utility.yul\":6095:6112   */\n      and\n        /* \"#utility.yul\":6085:6112   */\n      swap2\n      pop\n        /* \"#utility.yul\":6041:6122   */\n    tag_189:\n        /* \"#utility.yul\":6169:6171   */\n      0x20\n        /* \"#utility.yul\":6161:6167   */\n      dup3\n        /* \"#utility.yul\":6158:6172   */\n      lt\n        /* \"#utility.yul\":6138:6156   */\n      dup2\n        /* \"#utility.yul\":6135:6173   */\n      sub\n        /* \"#utility.yul\":6132:6216   */\n      tag_190\n      jumpi\n        /* \"#utility.yul\":6188:6206   */\n      tag_191\n      tag_118\n      jump\t// in\n    tag_191:\n        /* \"#utility.yul\":6132:6216   */\n    tag_190:\n        /* \"#utility.yul\":5953:6222   */\n      pop\n        /* \"#utility.yul\":5902:6222   */\n      swap2\n      swap1\n      pop\n      jump\t// out\n        /* \"#utility.yul\":6228:6408   */\n    tag_90:\n        /* \"#utility.yul\":6276:6353   */\n      0x4e487b7100000000000000000000000000000000000000000000000000000000\n        /* \"#utility.yul\":6273:6274   */\n      0x00\n        /* \"#utility.yul\":6266:6354   */\n      mstore\n        /* \"#utility.yul\":6373:6377   */\n      0x01\n        /* \"#utility.yul\":6370:6371   */\n      0x04\n        /* \"#utility.yul\":6363:6378   */\n      mstore\n        /* \"#utility.yul\":6397:6401   */\n      0x24\n        /* \"#utility.yul\":6394:6395   */\n      0x00\n        /* \"#utility.yul\":6387:6402   */\n      revert\n        /* \"#utility.yul\":6414:6594   */\n    tag_119:\n        /* \"#utility.yul\":6462:6539   */\n      0x4e487b7100000000000000000000000000000000000000000000000000000000\n        /* \"#utility.yul\":6459:6460   */\n      0x00\n        /* \"#utility.yul\":6452:6540   */\n      mstore\n        /* \"#utility.yul\":6559:6563   */\n      0x11\n        /* \"#utility.yul\":6556:6557   */\n      0x04\n        /* \"#utility.yul\":6549:6564   */\n      mstore\n        /* \"#utility.yul\":6583:6587   */\n      0x24\n        /* \"#utility.yul\":6580:6581   */\n      0x00\n        /* \"#utility.yul\":6573:6588   */\n      revert\n        /* \"#utility.yul\":6600:6791   */\n    tag_92:\n        /* \"#utility.yul\":6640:6644   */\n      0x00\n        /* \"#utility.yul\":6660:6680   */\n      tag_195\n        /* \"#utility.yul\":6678:6679   */\n      dup3\n        /* \"#utility.yul\":6660:6680   */\n      tag_110\n      jump\t// in\n    tag_195:\n        /* \"#utility.yul\":6655:6680   */\n      swap2\n      pop\n        /* \"#utility.yul\":6694:6714   */\n      tag_196\n        /* \"#utility.yul\":6712:6713   */\n      dup4\n        /* \"#utility.yul\":6694:6714   */\n      tag_110\n      jump\t// in\n    tag_196:\n        /* \"#utility.yul\":6689:6714   */\n      swap3\n      pop\n        /* \"#utility.yul\":6733:6734   */\n      dup3\n        /* \"#utility.yul\":6730:6731   */\n      dup3\n        /* \"#utility.yul\":6727:6735   */\n      lt\n        /* \"#utility.yul\":6724:6758   */\n      iszero\n      tag_197\n      jumpi\n        /* \"#utility.yul\":6738:6756   */\n      tag_198\n      tag_119\n      jump\t// in\n    tag_198:\n        /* \"#utility.yul\":6724:6758   */\n    tag_197:\n        /* \"#utility.yul\":6783:6784   */\n      dup3\n        /* \"#utility.yul\":6780:6781   */\n      dup3\n        /* \"#utility.yul\":6776:6785   */\n      sub\n        /* \"#utility.yul\":6768:6785   */\n      swap1\n      pop\n        /* \"#utility.yul\":6600:6791   */\n      swap3\n      swap2\n      pop\n      pop\n      jump\t// out\n        /* \"#utility.yul\":6797:7102   */\n    tag_95:\n        /* \"#utility.yul\":6837:6840   */\n      0x00\n        /* \"#utility.yul\":6856:6876   */\n      tag_200\n        /* \"#utility.yul\":6874:6875   */\n      dup3\n        /* \"#utility.yul\":6856:6876   */\n      tag_110\n      jump\t// in\n    tag_200:\n        /* \"#utility.yul\":6851:6876   */\n      swap2\n      pop\n        /* \"#utility.yul\":6890:6910   */\n      tag_201\n        /* \"#utility.yul\":6908:6909   */\n      dup4\n        /* \"#utility.yul\":6890:6910   */\n      tag_110\n      jump\t// in\n    tag_201:\n        /* \"#utility.yul\":6885:6910   */\n      swap3\n      pop\n        /* \"#utility.yul\":7044:7045   */\n      dup3\n        /* \"#utility.yul\":6976:7042   */\n      0xffffffffffffffffffffffffffffffffffffffffffffffffffffffffffffffff\n        /* \"#utility.yul\":6972:7046   */\n      sub\n        /* \"#utility.yul\":6969:6970   */\n      dup3\n        /* \"#utility.yul\":6966:7047   */\n      gt\n        /* \"#utility.yul\":6963:7070   */\n      iszero\n      tag_202\n      jumpi\n        /* \"#utility.yul\":7050:7068   */\n      tag_203\n      tag_119\n      jump\t// in\n    tag_203:\n        /* \"#utility.yul\":6963:7070   */\n    tag_202:\n        /* \"#utility.yul\":7094:7095   */\n      dup3\n        /* \"#utility.yul\":7091:7092   */\n      dup3\n        /* \"#utility.yul\":7087:7096   */\n      add\n        /* \"#utility.yul\":7080:7096   */\n      swap1\n      pop\n        /* \"#utility.yul\":6797:7102   */\n      swap3\n      swap2\n      pop\n      pop\n      jump\t// out\n\n    auxdata: 0xa264697066735822122028205d6bacb91f555c865b99904ff03228d37df2c8e97551e8a1d2ea6475fca564736f6c634300080e0033\n}\n",
				"bytecode": {
					"linkReferences": {},
					"object": "60806040523480156200001157600080fd5b5060405162001412380380620014128339818101604052810190620000379190620003a1565b83600090805190602001906200004f929190620000db565b50826001908051906020019062000068929190620000db565b5081600260006101000a81548160ff021916908360ff16021790555080600381905550600354600460003373ffffffffffffffffffffffffffffffffffffffff1673ffffffffffffffffffffffffffffffffffffffff1681526020019081526020016000208190555050505050620004b5565b828054620000e99062000480565b90600052602060002090601f0160209004810192826200010d576000855562000159565b82601f106200012857805160ff191683800117855562000159565b8280016001018555821562000159579182015b82811115620001585782518255916020019190600101906200013b565b5b5090506200016891906200016c565b5090565b5b80821115620001875760008160009055506001016200016d565b5090565b6000604051905090565b600080fd5b600080fd5b600080fd5b600080fd5b6000601f19601f8301169050919050565b7f4e487b7100000000000000000000000000000000000000000000000000000000600052604160045260246000fd5b620001f482620001a9565b810181811067ffffffffffffffff82111715620002165762000215620001ba565b5b80604052505050565b60006200022b6200018b565b9050620002398282620001e9565b919050565b600067ffffffffffffffff8211156200025c576200025b620001ba565b5b6200026782620001a9565b9050602081019050919050565b60005b838110156200029457808201518184015260208101905062000277565b83811115620002a4576000848401525b50505050565b6000620002c1620002bb846200023e565b6200021f565b905082815260208101848484011115620002e057620002df620001a4565b5b620002ed84828562000274565b509392505050565b600082601f8301126200030d576200030c6200019f565b5b81516200031f848260208601620002aa565b91505092915050565b600060ff82169050919050565b620003408162000328565b81146200034c57600080fd5b50565b600081519050620003608162000335565b92915050565b6000819050919050565b6200037b8162000366565b81146200038757600080fd5b50565b6000815190506200039b8162000370565b92915050565b60008060008060808587031215620003be57620003bd62000195565b5b600085015167ffffffffffffffff811115620003df57620003de6200019a565b5b620003ed87828801620002f5565b945050602085015167ffffffffffffffff8111156200041157620004106200019a565b5b6200041f87828801620002f5565b935050604062000432878288016200034f565b925050606062000445878288016200038a565b91505092959194509250565b7f4e487b7100000000000000000000000000000000000000000000000000000000600052602260045260246000fd5b600060028204905060018216806200049957607f821691505b602082108103620004af57620004ae62000451565b5b50919050565b610f4d80620004c56000396000f3fe608060405234801561001057600080fd5b506004361061009e5760003560e01c8063324536eb11610066578063324536eb1461015d57806370a082311461017b57806395d89b41146101ab578063a9059cbb146101c9578063dd62ed3e146101f95761009e565b806306fdde03146100a3578063095ea7b3146100c157806318160ddd146100f157806323b872dd1461010f578063313ce5671461013f575b600080fd5b6100ab610229565b6040516100b89190610b7d565b60405180910390f35b6100db60048036038101906100d69190610c38565b6102b7565b6040516100e89190610c93565b60405180910390f35b6100f96103a9565b6040516101069190610cbd565b60405180910390f35b61012960048036038101906101249190610cd8565b6103b3565b6040516101369190610c93565b60405180910390f35b610147610733565b6040516101549190610d47565b60405180910390f35b610165610746565b6040516101729190610cbd565b60405180910390f35b61019560048036038101906101909190610d62565b61074c565b6040516101a29190610cbd565b60405180910390f35b6101b3610795565b6040516101c09190610b7d565b60405180910390f35b6101e360048036038101906101de9190610c38565b610823565b6040516101f09190610c93565b60405180910390f35b610213600480360381019061020e9190610d8f565b610a0a565b6040516102209190610cbd565b60405180910390f35b6000805461023690610dfe565b80601f016020809104026020016040519081016040528092919081815260200182805461026290610dfe565b80156102af5780601f10610284576101008083540402835291602001916102af565b820191906000526020600020905b81548152906001019060200180831161029257829003601f168201915b505050505081565b600081600560003373ffffffffffffffffffffffffffffffffffffffff1673ffffffffffffffffffffffffffffffffffffffff16815260200190815260200160002060008573ffffffffffffffffffffffffffffffffffffffff1673ffffffffffffffffffffffffffffffffffffffff168152602001908152602001600020819055508273ffffffffffffffffffffffffffffffffffffffff163373ffffffffffffffffffffffffffffffffffffffff167f8c5be1e5ebec7d5bd14f71427d1e84f3dd0314c0f7b2291e5b200ac8c7c3b925846040516103979190610cbd565b60405180910390a36001905092915050565b6000600354905090565b6000600460008573ffffffffffffffffffffffffffffffffffffffff1673ffffffffffffffffffffffffffffffffffffffff1681526020019081526020016000205482111561040157600080fd5b600560008573ffffffffffffffffffffffffffffffffffffffff1673ffffffffffffffffffffffffffffffffffffffff16815260200190815260200160002060003373ffffffffffffffffffffffffffffffffffffffff1673ffffffffffffffffffffffffffffffffffffffff1681526020019081526020016000205482111561048a57600080fd5b6104dc82600460008773ffffffffffffffffffffffffffffffffffffffff1673ffffffffffffffffffffffffffffffffffffffff16815260200190815260200160002054610a9190919063ffffffff16565b600460008673ffffffffffffffffffffffffffffffffffffffff1673ffffffffffffffffffffffffffffffffffffffff168152602001908152602001600020819055506105ae82600560008773ffffffffffffffffffffffffffffffffffffffff1673ffffffffffffffffffffffffffffffffffffffff16815260200190815260200160002060003373ffffffffffffffffffffffffffffffffffffffff1673ffffffffffffffffffffffffffffffffffffffff16815260200190815260200160002054610a9190919063ffffffff16565b600560008673ffffffffffffffffffffffffffffffffffffffff1673ffffffffffffffffffffffffffffffffffffffff16815260200190815260200160002060003373ffffffffffffffffffffffffffffffffffffffff1673ffffffffffffffffffffffffffffffffffffffff1681526020019081526020016000208190555061068082600460008673ffffffffffffffffffffffffffffffffffffffff1673ffffffffffffffffffffffffffffffffffffffff16815260200190815260200160002054610ab890919063ffffffff16565b600460008573ffffffffffffffffffffffffffffffffffffffff1673ffffffffffffffffffffffffffffffffffffffff168152602001908152602001600020819055508273ffffffffffffffffffffffffffffffffffffffff168473ffffffffffffffffffffffffffffffffffffffff167fddf252ad1be2c89b69c2b068fc378daa952ba7f163c4a11628f55a4df523b3ef846040516107209190610cbd565b60405180910390a3600190509392505050565b600260009054906101000a900460ff1681565b60035481565b6000600460008373ffffffffffffffffffffffffffffffffffffffff1673ffffffffffffffffffffffffffffffffffffffff168152602001908152602001600020549050919050565b600180546107a290610dfe565b80601f01602080910402602001604051908101604052809291908181526020018280546107ce90610dfe565b801561081b5780601f106107f05761010080835404028352916020019161081b565b820191906000526020600020905b8154815290600101906020018083116107fe57829003601f168201915b505050505081565b6000600460003373ffffffffffffffffffffffffffffffffffffffff1673ffffffffffffffffffffffffffffffffffffffff1681526020019081526020016000205482111561087157600080fd5b6108c382600460003373ffffffffffffffffffffffffffffffffffffffff1673ffffffffffffffffffffffffffffffffffffffff16815260200190815260200160002054610a9190919063ffffffff16565b600460003373ffffffffffffffffffffffffffffffffffffffff1673ffffffffffffffffffffffffffffffffffffffff1681526020019081526020016000208190555061095882600460008673ffffffffffffffffffffffffffffffffffffffff1673ffffffffffffffffffffffffffffffffffffffff16815260200190815260200160002054610ab890919063ffffffff16565b600460008573ffffffffffffffffffffffffffffffffffffffff1673ffffffffffffffffffffffffffffffffffffffff168152602001908152602001600020819055508273ffffffffffffffffffffffffffffffffffffffff163373ffffffffffffffffffffffffffffffffffffffff167fddf252ad1be2c89b69c2b068fc378daa952ba7f163c4a11628f55a4df523b3ef846040516109f89190610cbd565b60405180910390a36001905092915050565b6000600560008473ffffffffffffffffffffffffffffffffffffffff1673ffffffffffffffffffffffffffffffffffffffff16815260200190815260200160002060008373ffffffffffffffffffffffffffffffffffffffff1673ffffffffffffffffffffffffffffffffffffffff16815260200190815260200160002054905092915050565b600082821115610aa457610aa3610e2f565b5b8183610ab09190610e8d565b905092915050565b6000808284610ac79190610ec1565b905083811015610ada57610ad9610e2f565b5b8091505092915050565b600081519050919050565b600082825260208201905092915050565b60005b83811015610b1e578082015181840152602081019050610b03565b83811115610b2d576000848401525b50505050565b6000601f19601f8301169050919050565b6000610b4f82610ae4565b610b598185610aef565b9350610b69818560208601610b00565b610b7281610b33565b840191505092915050565b60006020820190508181036000830152610b978184610b44565b905092915050565b600080fd5b600073ffffffffffffffffffffffffffffffffffffffff82169050919050565b6000610bcf82610ba4565b9050919050565b610bdf81610bc4565b8114610bea57600080fd5b50565b600081359050610bfc81610bd6565b92915050565b6000819050919050565b610c1581610c02565b8114610c2057600080fd5b50565b600081359050610c3281610c0c565b92915050565b60008060408385031215610c4f57610c4e610b9f565b5b6000610c5d85828601610bed565b9250506020610c6e85828601610c23565b9150509250929050565b60008115159050919050565b610c8d81610c78565b82525050565b6000602082019050610ca86000830184610c84565b92915050565b610cb781610c02565b82525050565b6000602082019050610cd26000830184610cae565b92915050565b600080600060608486031215610cf157610cf0610b9f565b5b6000610cff86828701610bed565b9350506020610d1086828701610bed565b9250506040610d2186828701610c23565b9150509250925092565b600060ff82169050919050565b610d4181610d2b565b82525050565b6000602082019050610d5c6000830184610d38565b92915050565b600060208284031215610d7857610d77610b9f565b5b6000610d8684828501610bed565b91505092915050565b60008060408385031215610da657610da5610b9f565b5b6000610db485828601610bed565b9250506020610dc585828601610bed565b9150509250929050565b7f4e487b7100000000000000000000000000000000000000000000000000000000600052602260045260246000fd5b60006002820490506001821680610e1657607f821691505b602082108103610e2957610e28610dcf565b5b50919050565b7f4e487b7100000000000000000000000000000000000000000000000000000000600052600160045260246000fd5b7f4e487b7100000000000000000000000000000000000000000000000000000000600052601160045260246000fd5b6000610e9882610c02565b9150610ea383610c02565b925082821015610eb657610eb5610e5e565b5b828203905092915050565b6000610ecc82610c02565b9150610ed783610c02565b9250827fffffffffffffffffffffffffffffffffffffffffffffffffffffffffffffffff03821115610f0c57610f0b610e5e565b5b82820190509291505056fea264697066735822122028205d6bacb91f555c865b99904ff03228d37df2c8e97551e8a1d2ea6475fca564736f6c634300080e0033",
					"opcodes": "PUSH1 0x80 PUSH1 0x40 MSTORE CALLVALUE DUP1 ISZERO PUSH3 0x11 JUMPI PUSH1 0x0 DUP1 REVERT JUMPDEST POP PUSH1 0x40 MLOAD PUSH3 0x1412 CODESIZE SUB DUP1 PUSH3 0x1412 DUP4 CODECOPY DUP2 DUP2 ADD PUSH1 0x40 MSTORE DUP2 ADD SWAP1 PUSH3 0x37 SWAP2 SWAP1 PUSH3 0x3A1 JUMP JUMPDEST DUP4 PUSH1 0x0 SWAP1 DUP1 MLOAD SWAP1 PUSH1 0x20 ADD SWAP1 PUSH3 0x4F SWAP3 SWAP2 SWAP1 PUSH3 0xDB JUMP JUMPDEST POP DUP3 PUSH1 0x1 SWAP1 DUP1 MLOAD SWAP1 PUSH1 0x20 ADD SWAP1 PUSH3 0x68 SWAP3 SWAP2 SWAP1 PUSH3 0xDB JUMP JUMPDEST POP DUP2 PUSH1 0x2 PUSH1 0x0 PUSH2 0x100 EXP DUP2 SLOAD DUP2 PUSH1 0xFF MUL NOT AND SWAP1 DUP4 PUSH1 0xFF AND MUL OR SWAP1 SSTORE POP DUP1 PUSH1 0x3 DUP2 SWAP1 SSTORE POP PUSH1 0x3 SLOAD PUSH1 0x4 PUSH1 0x0 CALLER PUSH20 0xFFFFFFFFFFFFFFFFFFFFFFFFFFFFFFFFFFFFFFFF AND PUSH20 0xFFFFFFFFFFFFFFFFFFFFFFFFFFFFFFFFFFFFFFFF AND DUP2 MSTORE PUSH1 0x20 ADD SWAP1 DUP2 MSTORE PUSH1 0x20 ADD PUSH1 0x0 KECCAK256 DUP2 SWAP1 SSTORE POP POP POP POP POP PUSH3 0x4B5 JUMP JUMPDEST DUP3 DUP1 SLOAD PUSH3 0xE9 SWAP1 PUSH3 0x480 JUMP JUMPDEST SWAP1 PUSH1 0x0 MSTORE PUSH1 0x20 PUSH1 0x0 KECCAK256 SWAP1 PUSH1 0x1F ADD PUSH1 0x20 SWAP1 DIV DUP2 ADD SWAP3 DUP3 PUSH3 0x10D JUMPI PUSH1 0x0 DUP6 SSTORE PUSH3 0x159 JUMP JUMPDEST DUP3 PUSH1 0x1F LT PUSH3 0x128 JUMPI DUP1 MLOAD PUSH1 0xFF NOT AND DUP4 DUP1 ADD OR DUP6 SSTORE PUSH3 0x159 JUMP JUMPDEST DUP3 DUP1 ADD PUSH1 0x1 ADD DUP6 SSTORE DUP3 ISZERO PUSH3 0x159 JUMPI SWAP2 DUP3 ADD JUMPDEST DUP3 DUP2 GT ISZERO PUSH3 0x158 JUMPI DUP3 MLOAD DUP3 SSTORE SWAP2 PUSH1 0x20 ADD SWAP2 SWAP1 PUSH1 0x1 ADD SWAP1 PUSH3 0x13B JUMP JUMPDEST JUMPDEST POP SWAP1 POP PUSH3 0x168 SWAP2 SWAP1 PUSH3 0x16C JUMP JUMPDEST POP SWAP1 JUMP JUMPDEST JUMPDEST DUP1 DUP3 GT ISZERO PUSH3 0x187 JUMPI PUSH1 0x0 DUP2 PUSH1 0x0 SWAP1 SSTORE POP PUSH1 0x1 ADD PUSH3 0x16D JUMP JUMPDEST POP SWAP1 JUMP JUMPDEST PUSH1 0x0 PUSH1 0x40 MLOAD SWAP1 POP SWAP1 JUMP JUMPDEST PUSH1 0x0 DUP1 REVERT JUMPDEST PUSH1 0x0 DUP1 REVERT JUMPDEST PUSH1 0x0 DUP1 REVERT JUMPDEST PUSH1 0x0 DUP1 REVERT JUMPDEST PUSH1 0x0 PUSH1 0x1F NOT PUSH1 0x1F DUP4 ADD AND SWAP1 POP SWAP2 SWAP1 POP JUMP JUMPDEST PUSH32 0x4E487B7100000000000000000000000000000000000000000000000000000000 PUSH1 0x0 MSTORE PUSH1 0x41 PUSH1 0x4 MSTORE PUSH1 0x24 PUSH1 0x0 REVERT JUMPDEST PUSH3 0x1F4 DUP3 PUSH3 0x1A9 JUMP JUMPDEST DUP2 ADD DUP2 DUP2 LT PUSH8 0xFFFFFFFFFFFFFFFF DUP3 GT OR ISZERO PUSH3 0x216 JUMPI PUSH3 0x215 PUSH3 0x1BA JUMP JUMPDEST JUMPDEST DUP1 PUSH1 0x40 MSTORE POP POP POP JUMP JUMPDEST PUSH1 0x0 PUSH3 0x22B PUSH3 0x18B JUMP JUMPDEST SWAP1 POP PUSH3 0x239 DUP3 DUP3 PUSH3 0x1E9 JUMP JUMPDEST SWAP2 SWAP1 POP JUMP JUMPDEST PUSH1 0x0 PUSH8 0xFFFFFFFFFFFFFFFF DUP3 GT ISZERO PUSH3 0x25C JUMPI PUSH3 0x25B PUSH3 0x1BA JUMP JUMPDEST JUMPDEST PUSH3 0x267 DUP3 PUSH3 0x1A9 JUMP JUMPDEST SWAP1 POP PUSH1 0x20 DUP2 ADD SWAP1 POP SWAP2 SWAP1 POP JUMP JUMPDEST PUSH1 0x0 JUMPDEST DUP4 DUP2 LT ISZERO PUSH3 0x294 JUMPI DUP1 DUP3 ADD MLOAD DUP2 DUP5 ADD MSTORE PUSH1 0x20 DUP2 ADD SWAP1 POP PUSH3 0x277 JUMP JUMPDEST DUP4 DUP2 GT ISZERO PUSH3 0x2A4 JUMPI PUSH1 0x0 DUP5 DUP5 ADD MSTORE JUMPDEST POP POP POP POP JUMP JUMPDEST PUSH1 0x0 PUSH3 0x2C1 PUSH3 0x2BB DUP5 PUSH3 0x23E JUMP JUMPDEST PUSH3 0x21F JUMP JUMPDEST SWAP1 POP DUP3 DUP2 MSTORE PUSH1 0x20 DUP2 ADD DUP5 DUP5 DUP5 ADD GT ISZERO PUSH3 0x2E0 JUMPI PUSH3 0x2DF PUSH3 0x1A4 JUMP JUMPDEST JUMPDEST PUSH3 0x2ED DUP5 DUP3 DUP6 PUSH3 0x274 JUMP JUMPDEST POP SWAP4 SWAP3 POP POP POP JUMP JUMPDEST PUSH1 0x0 DUP3 PUSH1 0x1F DUP4 ADD SLT PUSH3 0x30D JUMPI PUSH3 0x30C PUSH3 0x19F JUMP JUMPDEST JUMPDEST DUP2 MLOAD PUSH3 0x31F DUP5 DUP3 PUSH1 0x20 DUP7 ADD PUSH3 0x2AA JUMP JUMPDEST SWAP2 POP POP SWAP3 SWAP2 POP POP JUMP JUMPDEST PUSH1 0x0 PUSH1 0xFF DUP3 AND SWAP1 POP SWAP2 SWAP1 POP JUMP JUMPDEST PUSH3 0x340 DUP2 PUSH3 0x328 JUMP JUMPDEST DUP2 EQ PUSH3 0x34C JUMPI PUSH1 0x0 DUP1 REVERT JUMPDEST POP JUMP JUMPDEST PUSH1 0x0 DUP2 MLOAD SWAP1 POP PUSH3 0x360 DUP2 PUSH3 0x335 JUMP JUMPDEST SWAP3 SWAP2 POP POP JUMP JUMPDEST PUSH1 0x0 DUP2 SWAP1 POP SWAP2 SWAP1 POP JUMP JUMPDEST PUSH3 0x37B DUP2 PUSH3 0x366 JUMP JUMPDEST DUP2 EQ PUSH3 0x387 JUMPI PUSH1 0x0 DUP1 REVERT JUMPDEST POP JUMP JUMPDEST PUSH1 0x0 DUP2 MLOAD SWAP1 POP PUSH3 0x39B DUP2 PUSH3 0x370 JUMP JUMPDEST SWAP3 SWAP2 POP POP JUMP JUMPDEST PUSH1 0x0 DUP1 PUSH1 0x0 DUP1 PUSH1 0x80 DUP6 DUP8 SUB SLT ISZERO PUSH3 0x3BE JUMPI PUSH3 0x3BD PUSH3 0x195 JUMP JUMPDEST JUMPDEST PUSH1 0x0 DUP6 ADD MLOAD PUSH8 0xFFFFFFFFFFFFFFFF DUP2 GT ISZERO PUSH3 0x3DF JUMPI PUSH3 0x3DE PUSH3 0x19A JUMP JUMPDEST JUMPDEST PUSH3 0x3ED DUP8 DUP3 DUP9 ADD PUSH3 0x2F5 JUMP JUMPDEST SWAP5 POP POP PUSH1 0x20 DUP6 ADD MLOAD PUSH8 0xFFFFFFFFFFFFFFFF DUP2 GT ISZERO PUSH3 0x411 JUMPI PUSH3 0x410 PUSH3 0x19A JUMP JUMPDEST JUMPDEST PUSH3 0x41F DUP8 DUP3 DUP9 ADD PUSH3 0x2F5 JUMP JUMPDEST SWAP4 POP POP PUSH1 0x40 PUSH3 0x432 DUP8 DUP3 DUP9 ADD PUSH3 0x34F JUMP JUMPDEST SWAP3 POP POP PUSH1 0x60 PUSH3 0x445 DUP8 DUP3 DUP9 ADD PUSH3 0x38A JUMP JUMPDEST SWAP2 POP POP SWAP3 SWAP6 SWAP2 SWAP5 POP SWAP3 POP JUMP JUMPDEST PUSH32 0x4E487B7100000000000000000000000000000000000000000000000000000000 PUSH1 0x0 MSTORE PUSH1 0x22 PUSH1 0x4 MSTORE PUSH1 0x24 PUSH1 0x0 REVERT JUMPDEST PUSH1 0x0 PUSH1 0x2 DUP3 DIV SWAP1 POP PUSH1 0x1 DUP3 AND DUP1 PUSH3 0x499 JUMPI PUSH1 0x7F DUP3 AND SWAP2 POP JUMPDEST PUSH1 0x20 DUP3 LT DUP2 SUB PUSH3 0x4AF JUMPI PUSH3 0x4AE PUSH3 0x451 JUMP JUMPDEST JUMPDEST POP SWAP2 SWAP1 POP JUMP JUMPDEST PUSH2 0xF4D DUP1 PUSH3 0x4C5 PUSH1 0x0 CODECOPY PUSH1 0x0 RETURN INVALID PUSH1 0x80 PUSH1 0x40 MSTORE CALLVALUE DUP1 ISZERO PUSH2 0x10 JUMPI PUSH1 0x0 DUP1 REVERT JUMPDEST POP PUSH1 0x4 CALLDATASIZE LT PUSH2 0x9E JUMPI PUSH1 0x0 CALLDATALOAD PUSH1 0xE0 SHR DUP1 PUSH4 0x324536EB GT PUSH2 0x66 JUMPI DUP1 PUSH4 0x324536EB EQ PUSH2 0x15D JUMPI DUP1 PUSH4 0x70A08231 EQ PUSH2 0x17B JUMPI DUP1 PUSH4 0x95D89B41 EQ PUSH2 0x1AB JUMPI DUP1 PUSH4 0xA9059CBB EQ PUSH2 0x1C9 JUMPI DUP1 PUSH4 0xDD62ED3E EQ PUSH2 0x1F9 JUMPI PUSH2 0x9E JUMP JUMPDEST DUP1 PUSH4 0x6FDDE03 EQ PUSH2 0xA3 JUMPI DUP1 PUSH4 0x95EA7B3 EQ PUSH2 0xC1 JUMPI DUP1 PUSH4 0x18160DDD EQ PUSH2 0xF1 JUMPI DUP1 PUSH4 0x23B872DD EQ PUSH2 0x10F JUMPI DUP1 PUSH4 0x313CE567 EQ PUSH2 0x13F JUMPI JUMPDEST PUSH1 0x0 DUP1 REVERT JUMPDEST PUSH2 0xAB PUSH2 0x229 JUMP JUMPDEST PUSH1 0x40 MLOAD PUSH2 0xB8 SWAP2 SWAP1 PUSH2 0xB7D JUMP JUMPDEST PUSH1 0x40 MLOAD DUP1 SWAP2 SUB SWAP1 RETURN JUMPDEST PUSH2 0xDB PUSH1 0x4 DUP1 CALLDATASIZE SUB DUP2 ADD SWAP1 PUSH2 0xD6 SWAP2 SWAP1 PUSH2 0xC38 JUMP JUMPDEST PUSH2 0x2B7 JUMP JUMPDEST PUSH1 0x40 MLOAD PUSH2 0xE8 SWAP2 SWAP1 PUSH2 0xC93 JUMP JUMPDEST PUSH1 0x40 MLOAD DUP1 SWAP2 SUB SWAP1 RETURN JUMPDEST PUSH2 0xF9 PUSH2 0x3A9 JUMP JUMPDEST PUSH1 0x40 MLOAD PUSH2 0x106 SWAP2 SWAP1 PUSH2 0xCBD JUMP JUMPDEST PUSH1 0x40 MLOAD DUP1 SWAP2 SUB SWAP1 RETURN JUMPDEST PUSH2 0x129 PUSH1 0x4 DUP1 CALLDATASIZE SUB DUP2 ADD SWAP1 PUSH2 0x124 SWAP2 SWAP1 PUSH2 0xCD8 JUMP JUMPDEST PUSH2 0x3B3 JUMP JUMPDEST PUSH1 0x40 MLOAD PUSH2 0x136 SWAP2 SWAP1 PUSH2 0xC93 JUMP JUMPDEST PUSH1 0x40 MLOAD DUP1 SWAP2 SUB SWAP1 RETURN JUMPDEST PUSH2 0x147 PUSH2 0x733 JUMP JUMPDEST PUSH1 0x40 MLOAD PUSH2 0x154 SWAP2 SWAP1 PUSH2 0xD47 JUMP JUMPDEST PUSH1 0x40 MLOAD DUP1 SWAP2 SUB SWAP1 RETURN JUMPDEST PUSH2 0x165 PUSH2 0x746 JUMP JUMPDEST PUSH1 0x40 MLOAD PUSH2 0x172 SWAP2 SWAP1 PUSH2 0xCBD JUMP JUMPDEST PUSH1 0x40 MLOAD DUP1 SWAP2 SUB SWAP1 RETURN JUMPDEST PUSH2 0x195 PUSH1 0x4 DUP1 CALLDATASIZE SUB DUP2 ADD SWAP1 PUSH2 0x190 SWAP2 SWAP1 PUSH2 0xD62 JUMP JUMPDEST PUSH2 0x74C JUMP JUMPDEST PUSH1 0x40 MLOAD PUSH2 0x1A2 SWAP2 SWAP1 PUSH2 0xCBD JUMP JUMPDEST PUSH1 0x40 MLOAD DUP1 SWAP2 SUB SWAP1 RETURN JUMPDEST PUSH2 0x1B3 PUSH2 0x795 JUMP JUMPDEST PUSH1 0x40 MLOAD PUSH2 0x1C0 SWAP2 SWAP1 PUSH2 0xB7D JUMP JUMPDEST PUSH1 0x40 MLOAD DUP1 SWAP2 SUB SWAP1 RETURN JUMPDEST PUSH2 0x1E3 PUSH1 0x4 DUP1 CALLDATASIZE SUB DUP2 ADD SWAP1 PUSH2 0x1DE SWAP2 SWAP1 PUSH2 0xC38 JUMP JUMPDEST PUSH2 0x823 JUMP JUMPDEST PUSH1 0x40 MLOAD PUSH2 0x1F0 SWAP2 SWAP1 PUSH2 0xC93 JUMP JUMPDEST PUSH1 0x40 MLOAD DUP1 SWAP2 SUB SWAP1 RETURN JUMPDEST PUSH2 0x213 PUSH1 0x4 DUP1 CALLDATASIZE SUB DUP2 ADD SWAP1 PUSH2 0x20E SWAP2 SWAP1 PUSH2 0xD8F JUMP JUMPDEST PUSH2 0xA0A JUMP JUMPDEST PUSH1 0x40 MLOAD PUSH2 0x220 SWAP2 SWAP1 PUSH2 0xCBD JUMP JUMPDEST PUSH1 0x40 MLOAD DUP1 SWAP2 SUB SWAP1 RETURN JUMPDEST PUSH1 0x0 DUP1 SLOAD PUSH2 0x236 SWAP1 PUSH2 0xDFE JUMP JUMPDEST DUP1 PUSH1 0x1F ADD PUSH1 0x20 DUP1 SWAP2 DIV MUL PUSH1 0x20 ADD PUSH1 0x40 MLOAD SWAP1 DUP2 ADD PUSH1 0x40 MSTORE DUP1 SWAP3 SWAP2 SWAP1 DUP2 DUP2 MSTORE PUSH1 0x20 ADD DUP3 DUP1 SLOAD PUSH2 0x262 SWAP1 PUSH2 0xDFE JUMP JUMPDEST DUP1 ISZERO PUSH2 0x2AF JUMPI DUP1 PUSH1 0x1F LT PUSH2 0x284 JUMPI PUSH2 0x100 DUP1 DUP4 SLOAD DIV MUL DUP4 MSTORE SWAP2 PUSH1 0x20 ADD SWAP2 PUSH2 0x2AF JUMP JUMPDEST DUP3 ADD SWAP2 SWAP1 PUSH1 0x0 MSTORE PUSH1 0x20 PUSH1 0x0 KECCAK256 SWAP1 JUMPDEST DUP2 SLOAD DUP2 MSTORE SWAP1 PUSH1 0x1 ADD SWAP1 PUSH1 0x20 ADD DUP1 DUP4 GT PUSH2 0x292 JUMPI DUP3 SWAP1 SUB PUSH1 0x1F AND DUP3 ADD SWAP2 JUMPDEST POP POP POP POP POP DUP2 JUMP JUMPDEST PUSH1 0x0 DUP2 PUSH1 0x5 PUSH1 0x0 CALLER PUSH20 0xFFFFFFFFFFFFFFFFFFFFFFFFFFFFFFFFFFFFFFFF AND PUSH20 0xFFFFFFFFFFFFFFFFFFFFFFFFFFFFFFFFFFFFFFFF AND DUP2 MSTORE PUSH1 0x20 ADD SWAP1 DUP2 MSTORE PUSH1 0x20 ADD PUSH1 0x0 KECCAK256 PUSH1 0x0 DUP6 PUSH20 0xFFFFFFFFFFFFFFFFFFFFFFFFFFFFFFFFFFFFFFFF AND PUSH20 0xFFFFFFFFFFFFFFFFFFFFFFFFFFFFFFFFFFFFFFFF AND DUP2 MSTORE PUSH1 0x20 ADD SWAP1 DUP2 MSTORE PUSH1 0x20 ADD PUSH1 0x0 KECCAK256 DUP2 SWAP1 SSTORE POP DUP3 PUSH20 0xFFFFFFFFFFFFFFFFFFFFFFFFFFFFFFFFFFFFFFFF AND CALLER PUSH20 0xFFFFFFFFFFFFFFFFFFFFFFFFFFFFFFFFFFFFFFFF AND PUSH32 0x8C5BE1E5EBEC7D5BD14F71427D1E84F3DD0314C0F7B2291E5B200AC8C7C3B925 DUP5 PUSH1 0x40 MLOAD PUSH2 0x397 SWAP2 SWAP1 PUSH2 0xCBD JUMP JUMPDEST PUSH1 0x40 MLOAD DUP1 SWAP2 SUB SWAP1 LOG3 PUSH1 0x1 SWAP1 POP SWAP3 SWAP2 POP POP JUMP JUMPDEST PUSH1 0x0 PUSH1 0x3 SLOAD SWAP1 POP SWAP1 JUMP JUMPDEST PUSH1 0x0 PUSH1 0x4 PUSH1 0x0 DUP6 PUSH20 0xFFFFFFFFFFFFFFFFFFFFFFFFFFFFFFFFFFFFFFFF AND PUSH20 0xFFFFFFFFFFFFFFFFFFFFFFFFFFFFFFFFFFFFFFFF AND DUP2 MSTORE PUSH1 0x20 ADD SWAP1 DUP2 MSTORE PUSH1 0x20 ADD PUSH1 0x0 KECCAK256 SLOAD DUP3 GT ISZERO PUSH2 0x401 JUMPI PUSH1 0x0 DUP1 REVERT JUMPDEST PUSH1 0x5 PUSH1 0x0 DUP6 PUSH20 0xFFFFFFFFFFFFFFFFFFFFFFFFFFFFFFFFFFFFFFFF AND PUSH20 0xFFFFFFFFFFFFFFFFFFFFFFFFFFFFFFFFFFFFFFFF AND DUP2 MSTORE PUSH1 0x20 ADD SWAP1 DUP2 MSTORE PUSH1 0x20 ADD PUSH1 0x0 KECCAK256 PUSH1 0x0 CALLER PUSH20 0xFFFFFFFFFFFFFFFFFFFFFFFFFFFFFFFFFFFFFFFF AND PUSH20 0xFFFFFFFFFFFFFFFFFFFFFFFFFFFFFFFFFFFFFFFF AND DUP2 MSTORE PUSH1 0x20 ADD SWAP1 DUP2 MSTORE PUSH1 0x20 ADD PUSH1 0x0 KECCAK256 SLOAD DUP3 GT ISZERO PUSH2 0x48A JUMPI PUSH1 0x0 DUP1 REVERT JUMPDEST PUSH2 0x4DC DUP3 PUSH1 0x4 PUSH1 0x0 DUP8 PUSH20 0xFFFFFFFFFFFFFFFFFFFFFFFFFFFFFFFFFFFFFFFF AND PUSH20 0xFFFFFFFFFFFFFFFFFFFFFFFFFFFFFFFFFFFFFFFF AND DUP2 MSTORE PUSH1 0x20 ADD SWAP1 DUP2 MSTORE PUSH1 0x20 ADD PUSH1 0x0 KECCAK256 SLOAD PUSH2 0xA91 SWAP1 SWAP2 SWAP1 PUSH4 0xFFFFFFFF AND JUMP JUMPDEST PUSH1 0x4 PUSH1 0x0 DUP7 PUSH20 0xFFFFFFFFFFFFFFFFFFFFFFFFFFFFFFFFFFFFFFFF AND PUSH20 0xFFFFFFFFFFFFFFFFFFFFFFFFFFFFFFFFFFFFFFFF AND DUP2 MSTORE PUSH1 0x20 ADD SWAP1 DUP2 MSTORE PUSH1 0x20 ADD PUSH1 0x0 KECCAK256 DUP2 SWAP1 SSTORE POP PUSH2 0x5AE DUP3 PUSH1 0x5 PUSH1 0x0 DUP8 PUSH20 0xFFFFFFFFFFFFFFFFFFFFFFFFFFFFFFFFFFFFFFFF AND PUSH20 0xFFFFFFFFFFFFFFFFFFFFFFFFFFFFFFFFFFFFFFFF AND DUP2 MSTORE PUSH1 0x20 ADD SWAP1 DUP2 MSTORE PUSH1 0x20 ADD PUSH1 0x0 KECCAK256 PUSH1 0x0 CALLER PUSH20 0xFFFFFFFFFFFFFFFFFFFFFFFFFFFFFFFFFFFFFFFF AND PUSH20 0xFFFFFFFFFFFFFFFFFFFFFFFFFFFFFFFFFFFFFFFF AND DUP2 MSTORE PUSH1 0x20 ADD SWAP1 DUP2 MSTORE PUSH1 0x20 ADD PUSH1 0x0 KECCAK256 SLOAD PUSH2 0xA91 SWAP1 SWAP2 SWAP1 PUSH4 0xFFFFFFFF AND JUMP JUMPDEST PUSH1 0x5 PUSH1 0x0 DUP7 PUSH20 0xFFFFFFFFFFFFFFFFFFFFFFFFFFFFFFFFFFFFFFFF AND PUSH20 0xFFFFFFFFFFFFFFFFFFFFFFFFFFFFFFFFFFFFFFFF AND DUP2 MSTORE PUSH1 0x20 ADD SWAP1 DUP2 MSTORE PUSH1 0x20 ADD PUSH1 0x0 KECCAK256 PUSH1 0x0 CALLER PUSH20 0xFFFFFFFFFFFFFFFFFFFFFFFFFFFFFFFFFFFFFFFF AND PUSH20 0xFFFFFFFFFFFFFFFFFFFFFFFFFFFFFFFFFFFFFFFF AND DUP2 MSTORE PUSH1 0x20 ADD SWAP1 DUP2 MSTORE PUSH1 0x20 ADD PUSH1 0x0 KECCAK256 DUP2 SWAP1 SSTORE POP PUSH2 0x680 DUP3 PUSH1 0x4 PUSH1 0x0 DUP7 PUSH20 0xFFFFFFFFFFFFFFFFFFFFFFFFFFFFFFFFFFFFFFFF AND PUSH20 0xFFFFFFFFFFFFFFFFFFFFFFFFFFFFFFFFFFFFFFFF AND DUP2 MSTORE PUSH1 0x20 ADD SWAP1 DUP2 MSTORE PUSH1 0x20 ADD PUSH1 0x0 KECCAK256 SLOAD PUSH2 0xAB8 SWAP1 SWAP2 SWAP1 PUSH4 0xFFFFFFFF AND JUMP JUMPDEST PUSH1 0x4 PUSH1 0x0 DUP6 PUSH20 0xFFFFFFFFFFFFFFFFFFFFFFFFFFFFFFFFFFFFFFFF AND PUSH20 0xFFFFFFFFFFFFFFFFFFFFFFFFFFFFFFFFFFFFFFFF AND DUP2 MSTORE PUSH1 0x20 ADD SWAP1 DUP2 MSTORE PUSH1 0x20 ADD PUSH1 0x0 KECCAK256 DUP2 SWAP1 SSTORE POP DUP3 PUSH20 0xFFFFFFFFFFFFFFFFFFFFFFFFFFFFFFFFFFFFFFFF AND DUP5 PUSH20 0xFFFFFFFFFFFFFFFFFFFFFFFFFFFFFFFFFFFFFFFF AND PUSH32 0xDDF252AD1BE2C89B69C2B068FC378DAA952BA7F163C4A11628F55A4DF523B3EF DUP5 PUSH1 0x40 MLOAD PUSH2 0x720 SWAP2 SWAP1 PUSH2 0xCBD JUMP JUMPDEST PUSH1 0x40 MLOAD DUP1 SWAP2 SUB SWAP1 LOG3 PUSH1 0x1 SWAP1 POP SWAP4 SWAP3 POP POP POP JUMP JUMPDEST PUSH1 0x2 PUSH1 0x0 SWAP1 SLOAD SWAP1 PUSH2 0x100 EXP SWAP1 DIV PUSH1 0xFF AND DUP2 JUMP JUMPDEST PUSH1 0x3 SLOAD DUP2 JUMP JUMPDEST PUSH1 0x0 PUSH1 0x4 PUSH1 0x0 DUP4 PUSH20 0xFFFFFFFFFFFFFFFFFFFFFFFFFFFFFFFFFFFFFFFF AND PUSH20 0xFFFFFFFFFFFFFFFFFFFFFFFFFFFFFFFFFFFFFFFF AND DUP2 MSTORE PUSH1 0x20 ADD SWAP1 DUP2 MSTORE PUSH1 0x20 ADD PUSH1 0x0 KECCAK256 SLOAD SWAP1 POP SWAP2 SWAP1 POP JUMP JUMPDEST PUSH1 0x1 DUP1 SLOAD PUSH2 0x7A2 SWAP1 PUSH2 0xDFE JUMP JUMPDEST DUP1 PUSH1 0x1F ADD PUSH1 0x20 DUP1 SWAP2 DIV MUL PUSH1 0x20 ADD PUSH1 0x40 MLOAD SWAP1 DUP2 ADD PUSH1 0x40 MSTORE DUP1 SWAP3 SWAP2 SWAP1 DUP2 DUP2 MSTORE PUSH1 0x20 ADD DUP3 DUP1 SLOAD PUSH2 0x7CE SWAP1 PUSH2 0xDFE JUMP JUMPDEST DUP1 ISZERO PUSH2 0x81B JUMPI DUP1 PUSH1 0x1F LT PUSH2 0x7F0 JUMPI PUSH2 0x100 DUP1 DUP4 SLOAD DIV MUL DUP4 MSTORE SWAP2 PUSH1 0x20 ADD SWAP2 PUSH2 0x81B JUMP JUMPDEST DUP3 ADD SWAP2 SWAP1 PUSH1 0x0 MSTORE PUSH1 0x20 PUSH1 0x0 KECCAK256 SWAP1 JUMPDEST DUP2 SLOAD DUP2 MSTORE SWAP1 PUSH1 0x1 ADD SWAP1 PUSH1 0x20 ADD DUP1 DUP4 GT PUSH2 0x7FE JUMPI DUP3 SWAP1 SUB PUSH1 0x1F AND DUP3 ADD SWAP2 JUMPDEST POP POP POP POP POP DUP2 JUMP JUMPDEST PUSH1 0x0 PUSH1 0x4 PUSH1 0x0 CALLER PUSH20 0xFFFFFFFFFFFFFFFFFFFFFFFFFFFFFFFFFFFFFFFF AND PUSH20 0xFFFFFFFFFFFFFFFFFFFFFFFFFFFFFFFFFFFFFFFF AND DUP2 MSTORE PUSH1 0x20 ADD SWAP1 DUP2 MSTORE PUSH1 0x20 ADD PUSH1 0x0 KECCAK256 SLOAD DUP3 GT ISZERO PUSH2 0x871 JUMPI PUSH1 0x0 DUP1 REVERT JUMPDEST PUSH2 0x8C3 DUP3 PUSH1 0x4 PUSH1 0x0 CALLER PUSH20 0xFFFFFFFFFFFFFFFFFFFFFFFFFFFFFFFFFFFFFFFF AND PUSH20 0xFFFFFFFFFFFFFFFFFFFFFFFFFFFFFFFFFFFFFFFF AND DUP2 MSTORE PUSH1 0x20 ADD SWAP1 DUP2 MSTORE PUSH1 0x20 ADD PUSH1 0x0 KECCAK256 SLOAD PUSH2 0xA91 SWAP1 SWAP2 SWAP1 PUSH4 0xFFFFFFFF AND JUMP JUMPDEST PUSH1 0x4 PUSH1 0x0 CALLER PUSH20 0xFFFFFFFFFFFFFFFFFFFFFFFFFFFFFFFFFFFFFFFF AND PUSH20 0xFFFFFFFFFFFFFFFFFFFFFFFFFFFFFFFFFFFFFFFF AND DUP2 MSTORE PUSH1 0x20 ADD SWAP1 DUP2 MSTORE PUSH1 0x20 ADD PUSH1 0x0 KECCAK256 DUP2 SWAP1 SSTORE POP PUSH2 0x958 DUP3 PUSH1 0x4 PUSH1 0x0 DUP7 PUSH20 0xFFFFFFFFFFFFFFFFFFFFFFFFFFFFFFFFFFFFFFFF AND PUSH20 0xFFFFFFFFFFFFFFFFFFFFFFFFFFFFFFFFFFFFFFFF AND DUP2 MSTORE PUSH1 0x20 ADD SWAP1 DUP2 MSTORE PUSH1 0x20 ADD PUSH1 0x0 KECCAK256 SLOAD PUSH2 0xAB8 SWAP1 SWAP2 SWAP1 PUSH4 0xFFFFFFFF AND JUMP JUMPDEST PUSH1 0x4 PUSH1 0x0 DUP6 PUSH20 0xFFFFFFFFFFFFFFFFFFFFFFFFFFFFFFFFFFFFFFFF AND PUSH20 0xFFFFFFFFFFFFFFFFFFFFFFFFFFFFFFFFFFFFFFFF AND DUP2 MSTORE PUSH1 0x20 ADD SWAP1 DUP2 MSTORE PUSH1 0x20 ADD PUSH1 0x0 KECCAK256 DUP2 SWAP1 SSTORE POP DUP3 PUSH20 0xFFFFFFFFFFFFFFFFFFFFFFFFFFFFFFFFFFFFFFFF AND CALLER PUSH20 0xFFFFFFFFFFFFFFFFFFFFFFFFFFFFFFFFFFFFFFFF AND PUSH32 0xDDF252AD1BE2C89B69C2B068FC378DAA952BA7F163C4A11628F55A4DF523B3EF DUP5 PUSH1 0x40 MLOAD PUSH2 0x9F8 SWAP2 SWAP1 PUSH2 0xCBD JUMP JUMPDEST PUSH1 0x40 MLOAD DUP1 SWAP2 SUB SWAP1 LOG3 PUSH1 0x1 SWAP1 POP SWAP3 SWAP2 POP POP JUMP JUMPDEST PUSH1 0x0 PUSH1 0x5 PUSH1 0x0 DUP5 PUSH20 0xFFFFFFFFFFFFFFFFFFFFFFFFFFFFFFFFFFFFFFFF AND PUSH20 0xFFFFFFFFFFFFFFFFFFFFFFFFFFFFFFFFFFFFFFFF AND DUP2 MSTORE PUSH1 0x20 ADD SWAP1 DUP2 MSTORE PUSH1 0x20 ADD PUSH1 0x0 KECCAK256 PUSH1 0x0 DUP4 PUSH20 0xFFFFFFFFFFFFFFFFFFFFFFFFFFFFFFFFFFFFFFFF AND PUSH20 0xFFFFFFFFFFFFFFFFFFFFFFFFFFFFFFFFFFFFFFFF AND DUP2 MSTORE PUSH1 0x20 ADD SWAP1 DUP2 MSTORE PUSH1 0x20 ADD PUSH1 0x0 KECCAK256 SLOAD SWAP1 POP SWAP3 SWAP2 POP POP JUMP JUMPDEST PUSH1 0x0 DUP3 DUP3 GT ISZERO PUSH2 0xAA4 JUMPI PUSH2 0xAA3 PUSH2 0xE2F JUMP JUMPDEST JUMPDEST DUP2 DUP4 PUSH2 0xAB0 SWAP2 SWAP1 PUSH2 0xE8D JUMP JUMPDEST SWAP1 POP SWAP3 SWAP2 POP POP JUMP JUMPDEST PUSH1 0x0 DUP1 DUP3 DUP5 PUSH2 0xAC7 SWAP2 SWAP1 PUSH2 0xEC1 JUMP JUMPDEST SWAP1 POP DUP4 DUP2 LT ISZERO PUSH2 0xADA JUMPI PUSH2 0xAD9 PUSH2 0xE2F JUMP JUMPDEST JUMPDEST DUP1 SWAP2 POP POP SWAP3 SWAP2 POP POP JUMP JUMPDEST PUSH1 0x0 DUP2 MLOAD SWAP1 POP SWAP2 SWAP1 POP JUMP JUMPDEST PUSH1 0x0 DUP3 DUP3 MSTORE PUSH1 0x20 DUP3 ADD SWAP1 POP SWAP3 SWAP2 POP POP JUMP JUMPDEST PUSH1 0x0 JUMPDEST DUP4 DUP2 LT ISZERO PUSH2 0xB1E JUMPI DUP1 DUP3 ADD MLOAD DUP2 DUP5 ADD MSTORE PUSH1 0x20 DUP2 ADD SWAP1 POP PUSH2 0xB03 JUMP JUMPDEST DUP4 DUP2 GT ISZERO PUSH2 0xB2D JUMPI PUSH1 0x0 DUP5 DUP5 ADD MSTORE JUMPDEST POP POP POP POP JUMP JUMPDEST PUSH1 0x0 PUSH1 0x1F NOT PUSH1 0x1F DUP4 ADD AND SWAP1 POP SWAP2 SWAP1 POP JUMP JUMPDEST PUSH1 0x0 PUSH2 0xB4F DUP3 PUSH2 0xAE4 JUMP JUMPDEST PUSH2 0xB59 DUP2 DUP6 PUSH2 0xAEF JUMP JUMPDEST SWAP4 POP PUSH2 0xB69 DUP2 DUP6 PUSH1 0x20 DUP7 ADD PUSH2 0xB00 JUMP JUMPDEST PUSH2 0xB72 DUP2 PUSH2 0xB33 JUMP JUMPDEST DUP5 ADD SWAP2 POP POP SWAP3 SWAP2 POP POP JUMP JUMPDEST PUSH1 0x0 PUSH1 0x20 DUP3 ADD SWAP1 POP DUP2 DUP2 SUB PUSH1 0x0 DUP4 ADD MSTORE PUSH2 0xB97 DUP2 DUP5 PUSH2 0xB44 JUMP JUMPDEST SWAP1 POP SWAP3 SWAP2 POP POP JUMP JUMPDEST PUSH1 0x0 DUP1 REVERT JUMPDEST PUSH1 0x0 PUSH20 0xFFFFFFFFFFFFFFFFFFFFFFFFFFFFFFFFFFFFFFFF DUP3 AND SWAP1 POP SWAP2 SWAP1 POP JUMP JUMPDEST PUSH1 0x0 PUSH2 0xBCF DUP3 PUSH2 0xBA4 JUMP JUMPDEST SWAP1 POP SWAP2 SWAP1 POP JUMP JUMPDEST PUSH2 0xBDF DUP2 PUSH2 0xBC4 JUMP JUMPDEST DUP2 EQ PUSH2 0xBEA JUMPI PUSH1 0x0 DUP1 REVERT JUMPDEST POP JUMP JUMPDEST PUSH1 0x0 DUP2 CALLDATALOAD SWAP1 POP PUSH2 0xBFC DUP2 PUSH2 0xBD6 JUMP JUMPDEST SWAP3 SWAP2 POP POP JUMP JUMPDEST PUSH1 0x0 DUP2 SWAP1 POP SWAP2 SWAP1 POP JUMP JUMPDEST PUSH2 0xC15 DUP2 PUSH2 0xC02 JUMP JUMPDEST DUP2 EQ PUSH2 0xC20 JUMPI PUSH1 0x0 DUP1 REVERT JUMPDEST POP JUMP JUMPDEST PUSH1 0x0 DUP2 CALLDATALOAD SWAP1 POP PUSH2 0xC32 DUP2 PUSH2 0xC0C JUMP JUMPDEST SWAP3 SWAP2 POP POP JUMP JUMPDEST PUSH1 0x0 DUP1 PUSH1 0x40 DUP4 DUP6 SUB SLT ISZERO PUSH2 0xC4F JUMPI PUSH2 0xC4E PUSH2 0xB9F JUMP JUMPDEST JUMPDEST PUSH1 0x0 PUSH2 0xC5D DUP6 DUP3 DUP7 ADD PUSH2 0xBED JUMP JUMPDEST SWAP3 POP POP PUSH1 0x20 PUSH2 0xC6E DUP6 DUP3 DUP7 ADD PUSH2 0xC23 JUMP JUMPDEST SWAP2 POP POP SWAP3 POP SWAP3 SWAP1 POP JUMP JUMPDEST PUSH1 0x0 DUP2 ISZERO ISZERO SWAP1 POP SWAP2 SWAP1 POP JUMP JUMPDEST PUSH2 0xC8D DUP2 PUSH2 0xC78 JUMP JUMPDEST DUP3 MSTORE POP POP JUMP JUMPDEST PUSH1 0x0 PUSH1 0x20 DUP3 ADD SWAP1 POP PUSH2 0xCA8 PUSH1 0x0 DUP4 ADD DUP5 PUSH2 0xC84 JUMP JUMPDEST SWAP3 SWAP2 POP POP JUMP JUMPDEST PUSH2 0xCB7 DUP2 PUSH2 0xC02 JUMP JUMPDEST DUP3 MSTORE POP POP JUMP JUMPDEST PUSH1 0x0 PUSH1 0x20 DUP3 ADD SWAP1 POP PUSH2 0xCD2 PUSH1 0x0 DUP4 ADD DUP5 PUSH2 0xCAE JUMP JUMPDEST SWAP3 SWAP2 POP POP JUMP JUMPDEST PUSH1 0x0 DUP1 PUSH1 0x0 PUSH1 0x60 DUP5 DUP7 SUB SLT ISZERO PUSH2 0xCF1 JUMPI PUSH2 0xCF0 PUSH2 0xB9F JUMP JUMPDEST JUMPDEST PUSH1 0x0 PUSH2 0xCFF DUP7 DUP3 DUP8 ADD PUSH2 0xBED JUMP JUMPDEST SWAP4 POP POP PUSH1 0x20 PUSH2 0xD10 DUP7 DUP3 DUP8 ADD PUSH2 0xBED JUMP JUMPDEST SWAP3 POP POP PUSH1 0x40 PUSH2 0xD21 DUP7 DUP3 DUP8 ADD PUSH2 0xC23 JUMP JUMPDEST SWAP2 POP POP SWAP3 POP SWAP3 POP SWAP3 JUMP JUMPDEST PUSH1 0x0 PUSH1 0xFF DUP3 AND SWAP1 POP SWAP2 SWAP1 POP JUMP JUMPDEST PUSH2 0xD41 DUP2 PUSH2 0xD2B JUMP JUMPDEST DUP3 MSTORE POP POP JUMP JUMPDEST PUSH1 0x0 PUSH1 0x20 DUP3 ADD SWAP1 POP PUSH2 0xD5C PUSH1 0x0 DUP4 ADD DUP5 PUSH2 0xD38 JUMP JUMPDEST SWAP3 SWAP2 POP POP JUMP JUMPDEST PUSH1 0x0 PUSH1 0x20 DUP3 DUP5 SUB SLT ISZERO PUSH2 0xD78 JUMPI PUSH2 0xD77 PUSH2 0xB9F JUMP JUMPDEST JUMPDEST PUSH1 0x0 PUSH2 0xD86 DUP5 DUP3 DUP6 ADD PUSH2 0xBED JUMP JUMPDEST SWAP2 POP POP SWAP3 SWAP2 POP POP JUMP JUMPDEST PUSH1 0x0 DUP1 PUSH1 0x40 DUP4 DUP6 SUB SLT ISZERO PUSH2 0xDA6 JUMPI PUSH2 0xDA5 PUSH2 0xB9F JUMP JUMPDEST JUMPDEST PUSH1 0x0 PUSH2 0xDB4 DUP6 DUP3 DUP7 ADD PUSH2 0xBED JUMP JUMPDEST SWAP3 POP POP PUSH1 0x20 PUSH2 0xDC5 DUP6 DUP3 DUP7 ADD PUSH2 0xBED JUMP JUMPDEST SWAP2 POP POP SWAP3 POP SWAP3 SWAP1 POP JUMP JUMPDEST PUSH32 0x4E487B7100000000000000000000000000000000000000000000000000000000 PUSH1 0x0 MSTORE PUSH1 0x22 PUSH1 0x4 MSTORE PUSH1 0x24 PUSH1 0x0 REVERT JUMPDEST PUSH1 0x0 PUSH1 0x2 DUP3 DIV SWAP1 POP PUSH1 0x1 DUP3 AND DUP1 PUSH2 0xE16 JUMPI PUSH1 0x7F DUP3 AND SWAP2 POP JUMPDEST PUSH1 0x20 DUP3 LT DUP2 SUB PUSH2 0xE29 JUMPI PUSH2 0xE28 PUSH2 0xDCF JUMP JUMPDEST JUMPDEST POP SWAP2 SWAP1 POP JUMP JUMPDEST PUSH32 0x4E487B7100000000000000000000000000000000000000000000000000000000 PUSH1 0x0 MSTORE PUSH1 0x1 PUSH1 0x4 MSTORE PUSH1 0x24 PUSH1 0x0 REVERT JUMPDEST PUSH32 0x4E487B7100000000000000000000000000000000000000000000000000000000 PUSH1 0x0 MSTORE PUSH1 0x11 PUSH1 0x4 MSTORE PUSH1 0x24 PUSH1 0x0 REVERT JUMPDEST PUSH1 0x0 PUSH2 0xE98 DUP3 PUSH2 0xC02 JUMP JUMPDEST SWAP2 POP PUSH2 0xEA3 DUP4 PUSH2 0xC02 JUMP JUMPDEST SWAP3 POP DUP3 DUP3 LT ISZERO PUSH2 0xEB6 JUMPI PUSH2 0xEB5 PUSH2 0xE5E JUMP JUMPDEST JUMPDEST DUP3 DUP3 SUB SWAP1 POP SWAP3 SWAP2 POP POP JUMP JUMPDEST PUSH1 0x0 PUSH2 0xECC DUP3 PUSH2 0xC02 JUMP JUMPDEST SWAP2 POP PUSH2 0xED7 DUP4 PUSH2 0xC02 JUMP JUMPDEST SWAP3 POP DUP3 PUSH32 0xFFFFFFFFFFFFFFFFFFFFFFFFFFFFFFFFFFFFFFFFFFFFFFFFFFFFFFFFFFFFFFFF SUB DUP3 GT ISZERO PUSH2 0xF0C JUMPI PUSH2 0xF0B PUSH2 0xE5E JUMP JUMPDEST JUMPDEST DUP3 DUP3 ADD SWAP1 POP SWAP3 SWAP2 POP POP JUMP INVALID LOG2 PUSH5 0x6970667358 0x22 SLT KECCAK256 0x28 KECCAK256 0x5D PUSH12 0xACB91F555C865B99904FF032 0x28 0xD3 PUSH30 0xF2C8E97551E8A1D2EA6475FCA564736F6C634300080E0033000000000000 "
				},
				"gasEstimates": {
					"creation": {
						"codeDepositCost": "783400",
						"executionCost": "infinite",
						"totalCost": "infinite"
					},
					"external": {
						"allowance(address,address)": "infinite",
						"approve(address,uint256)": "infinite",
						"balanceOf(address)": "2863",
						"decimals()": "2560",
						"name()": "infinite",
						"symbol()": "infinite",
						"totalSupply()": "2482",
						"totalSupply_()": "2429",
						"transfer(address,uint256)": "infinite",
						"transferFrom(address,address,uint256)": "infinite"
					}
				},
				"methodIdentifiers": {
					"allowance(address,address)": "dd62ed3e",
					"approve(address,uint256)": "095ea7b3",
					"balanceOf(address)": "70a08231",
					"decimals()": "313ce567",
					"name()": "06fdde03",
					"symbol()": "95d89b41",
					"totalSupply()": "18160ddd",
					"totalSupply_()": "324536eb",
					"transfer(address,uint256)": "a9059cbb",
					"transferFrom(address,address,uint256)": "23b872dd"
				}
			},
			"storageLayout": {
				"storage": [
					{
						"astId": 9,
						"contract": "contracts/GregorLandToken.sol:GregorLandToken",
						"label": "name",
						"offset": 0,
						"slot": "0",
						"type": "t_string_storage"
					},
					{
						"astId": 11,
						"contract": "contracts/GregorLandToken.sol:GregorLandToken",
						"label": "symbol",
						"offset": 0,
						"slot": "1",
						"type": "t_string_storage"
					},
					{
						"astId": 13,
						"contract": "contracts/GregorLandToken.sol:GregorLandToken",
						"label": "decimals",
						"offset": 0,
						"slot": "2",
						"type": "t_uint8"
					},
					{
						"astId": 15,
						"contract": "contracts/GregorLandToken.sol:GregorLandToken",
						"label": "totalSupply_",
						"offset": 0,
						"slot": "3",
						"type": "t_uint256"
					},
					{
						"astId": 19,
						"contract": "contracts/GregorLandToken.sol:GregorLandToken",
						"label": "balances",
						"offset": 0,
						"slot": "4",
						"type": "t_mapping(t_address,t_uint256)"
					},
					{
						"astId": 25,
						"contract": "contracts/GregorLandToken.sol:GregorLandToken",
						"label": "allowed",
						"offset": 0,
						"slot": "5",
						"type": "t_mapping(t_address,t_mapping(t_address,t_uint256))"
					}
				],
				"types": {
					"t_address": {
						"encoding": "inplace",
						"label": "address",
						"numberOfBytes": "20"
					},
					"t_mapping(t_address,t_mapping(t_address,t_uint256))": {
						"encoding": "mapping",
						"key": "t_address",
						"label": "mapping(address => mapping(address => uint256))",
						"numberOfBytes": "32",
						"value": "t_mapping(t_address,t_uint256)"
					},
					"t_mapping(t_address,t_uint256)": {
						"encoding": "mapping",
						"key": "t_address",
						"label": "mapping(address => uint256)",
						"numberOfBytes": "32",
						"value": "t_uint256"
					},
					"t_string_storage": {
						"encoding": "bytes",
						"label": "string",
						"numberOfBytes": "32"
					},
					"t_uint256": {
						"encoding": "inplace",
						"label": "uint256",
						"numberOfBytes": "32"
					},
					"t_uint8": {
						"encoding": "inplace",
						"label": "uint8",
						"numberOfBytes": "1"
					}
				}
			},
			"userdoc": {
				"kind": "user",
				"methods": {},
				"version": 1
			}
		}
	}
}